:10000000024931908ED9EEF0A3EFF07B017A8E7920
:10001000D9908F09E4F0A304F07FA07E00123B2169
:0100200022BD
:0700230002532612005E22C9
:10002B00024BC6E4F58E75C870F593759401759502
:10003B0002F5C9F5F875F901F5A8F5B8F59AF5A922
:06004B00F5B953C9FD22C6
:0300530002552330
:10005B000232C5908802E064207051A3E070187FD3
:10006B0001FE120003E4908820F0A3F090881FF0AB
:10007B0090880204F0802990881DE014F0E0FF12B4
:10008B00407A9088027404F090881DE02404F58275
:10009B00E43488F583E4F090881DE004F05407F015
:1000AB00908803E0D394004003E014F0908802E0C2
:1000BB006401703390881CE0FFA3E0B50707E4FDF3
:1000CB00FCFF12545C9088027408F090881DE0FFCE
:1000DB0012407A9088037403F090880204F09088A1
:0800EB001DE004F05407F022AF
:1000F800FFFF4457494E5435908EE6EEF0A3EFF0DB
:1001080090903DE0FEA3E04E601DE4908EE8F0A3E1
:10011800F07B017A8E79E8908F09F0A37402F07F62
:10012800127E11123B2122909041E0FEA3E064016F
:100138004E60030201F4909027E0FEA3E090901532
:1001480075F0221212A3EE75F022A42583F583E040
:10015800FEA3E0FF90905BE0FCA3E0D39FEC9E4001
:1001680028909027E0FEA3E090901575F0221212D7
:10017800A3EE75F022A42583F583E0FEA3E0FF90AB
:10018800905BEEF0A3EFF08051909027E0FEA3E0A3
:1001980090901375F0221212A3EE75F022A4258315
:1001A800F583E0FEA3E0FF90905BE0FCA3E0C39F33
:1001B800EC9E5026909027E0FEA3E090901375F0F7
:1001C800221212A3EE75F022A42583F583E0FEA384
:1001D800E0FF90905BEEF0A3EFF090905BE0FCA363
:1001E800E0FD7F107E001242620205CA909041E055
:1001F800FEA3E064024E60030202B9909027E0FE7D
:10020800A3E090901575F0221212A3EE75F022A4C7
:100218002583F583E0FEA3E0FF90905FE0FCA3E078
:10022800D39FEC9E4028909027E0FEA3E090901585
:1002380075F0221212A3EE75F022A42583F583E04F
:10024800FEA3E0FF90905FEEF0A3EFF08051909056
:1002580027E0FEA3E090901375F0221212A3EE752A
:10026800F022A42583F583E0FEA3E0FF90905FE0F1
:10027800FCA3E0C39FEC9E5026909027E0FEA3E0ED
:1002880090901375F0221212A3EE75F022A4258324
:10029800F583E0FEA3E0FF90905FEEF0A3EFF0900F
:1002A800905FE0FCA3E0FD7F207E00124262020521
:1002B800CA909041E0FEA3E064034E600302037E0F
:1002C800909027E0FEA3E090901575F0221212A3FB
:1002D800EE75F022A42583F583E0FEA3E0FF90905D
:1002E80063E0FCA3E0D39FEC9E4028909027E0FEBB
:1002F800A3E090901575F0221212A3EE75F022A4D7
:100308002583F583E0FEA3E0FF909063EEF0A3EF72
:10031800F08051909027E0FEA3E090901375F022B2
:100328001212A3EE75F022A42583F583E0FEA3E064
:10033800FF909063E0FCA3E0C39FEC9E5026909052
:1003480027E0FEA3E090901375F0221212A3EE7539
:10035800F022A42583F583E0FEA3E0FF909063EEEE
:10036800F0A3EFF0909063E0FCA3E0FD7F407E00F7
:100378001242620205CA909041E0FEA3E064044E76
:100388006003020443909027E0FEA3E090901B7561
:10039800F0221212A3EE75F022A42583F583E0FE65
:1003A800A3E0FF90905DE0FCA3E0D39FEC9E402883
:1003B800909027E0FEA3E090901B75F0221212A304
:1003C800EE75F022A42583F583E0FEA3E0FF90906C
:1003D8005DEEF0A3EFF08051909027E0FEA3E0904F
:1003E800901975F0221212A3EE75F022A42583F558
:1003F80083E0FEA3E0FF90905DE0FCA3E0C39FECE8
:100408009E5026909027E0FEA3E090901975F02268
:100418001212A3EE75F022A42583F583E0FEA3E073
:10042800FF90905DEEF0A3EFF090905DE0FCA3E00C
:10043800FD7F107E0012434D0205CA909041E0FEF8
:10044800A3E064054E6003020508909027E0FEA330
:10045800E090901B75F0221212A3EE75F022A425ED
:1004680083F583E0FEA3E0FF909061E0FCA3E0D376
:100478009FEC9E4028909027E0FEA3E090901B758B
:10048800F0221212A3EE75F022A42583F583E0FE74
:10049800A3E0FF909061EEF0A3EFF08051909027D9
:1004A800E0FEA3E090901975F0221212A3EE75F009
:1004B80022A42583F583E0FEA3E0FF909061E0FC91
:1004C800A3E0C39FEC9E5026909027E0FEA3E09007
:1004D800901975F0221212A3EE75F022A42583F567
:1004E80083E0FEA3E0FF909061EEF0A3EFF0909020
:1004F80061E0FCA3E0FD7F207E0012434D0205CAA7
:10050800909041E0FEA3E064064E60030205CA90A5
:100518009027E0FEA3E090901B75F0221212A3EE44
:1005280075F022A42583F583E0FEA3E0FF90906593
:10053800E0FCA3E0D39FEC9E4028909027E0FEA328
:10054800E090901B75F0221212A3EE75F022A425FC
:1005580083F583E0FEA3E0FF909065EEF0A3EFF053
:100568008051909027E0FEA3E090901975F0221238
:1005780012A3EE75F022A42583F583E0FEA3E0FF25
:10058800909065E0FCA3E0C39FEC9E5026909027D6
:10059800E0FEA3E090901975F0221212A3EE75F018
:1005A80022A42583F583E0FEA3E0FF909065EEF09A
:1005B800A3EFF0909065E0FCA3E0FD7F407E001281
:1005C800434D908EE6E0FEA3E08EF0121387060AF4
:1005D8000001060A0002060A0003060A0004060AC9
:1005E8000005060A00060694040006F00800073312
:1005F8000C0006C2100006FB1400072B1C000000AC
:1006080007F47E007F0C7D007B017A9079871213B6
:10061800BA908EE6E0A3E014908EEAF0E01213613F
:10062800063E00064801065202065C0306660406FA
:10063800700500000678909087E4F0A304F08030FD
:10064800909089E4F0A304F0802690908BE4F0A3C6
:1006580004F0801C90908DE4F0A304F08012909038
:100668008FE4F0A304F08008909091E4F0A304F0E4
:10067800908EE6E0FEA3E0FF124438908EE6E0FE9E
:10068800A3E0FF909041EEF0A3EFF022909029E0D4
:10069800FEA3E04E7007909029F0A304F07B017A46
:1006A800907929908F09E4F0A304F07F4E7E201200
:1006B8003B217F0B7E001239FA22E4908EE8F0A3EA
:1006C800F07B017A8E79E8908F09F0A37402F07FAD
:1006D800127E11123B21E4909041F0A3F01255DDF7
:1006E8007F077E001239FA221255DD7F0C7E001238
:1006F80039FA227B017A90795B78677C907D017E5C
:10070800007F0C120EEA7B017A907967908EF0E4F4
:10071800F0A37406F0E4FFFE1252697F0B7E00120C
:1007280039FA227F0B7E001239FA22E4909041F0C8
:10073800A3F01255DD7B017A907929908EFBE4F0C5
:10074800A37402F07F057E007D007C001247C17B08
:10075800017A907967785B7C907D017E007F0C122E
:100768000EEA7B017A90796778577C907D017E004C
:100778007F04120EEA90905BE0FCA3E0FD7F107E00
:100788000012426290905FE0FCA3E0FD7F207E00B3
:10079800124262909063E0FCA3E0FD7F407E00126D
:1007A800426290905DE0FCA3E0FD7F107E00124362
:1007B8004D909061E0FCA3E0FD7F207E0012434D48
:1007C800909065E0FCA3E0FD7F407E0012434DE47D
:1007D800908EE8F0A3F07B017A8E79E8908F09F08B
:1007E800A37402F07F127E11123B2122908EE6E064
:1007F800FEA3E0FF909041EEF0A3EFF022908EE68A
:10080800EEF0A3EFF0909049E0FEA3E08EF0121313
:1008180087082D000109A800020B2200030C9E0086
:100828000400000E19909045E0FEA3E0FF908EE8CA
:10083800EEF0A3EFF0908EE6E0FEA3E0C3940BEE9B
:1008480094005068908EE6E0A3E0640A4E7006902B
:100858008EE6F0A3F0908EE8E0FEA3E0FF7C007D3A
:1008680064120FBE908EE8ECF0A3EDF0908EE8E0F5
:10087800FEA3E0FF7C007D0A120FAC908EE8EEF03C
:10088800A3EFF0908EE6E0FEA3E0FFA3EE8FF01258
:100898001049908EE8E0FEA3E0D39463EE94004004
:1008A8002C908EE8E4F0A37463F08021908EE6E04B
:1008B800FEA3E0640B4E7015A3E0FEA3E0FF7C00EE
:1008C8007D0A120FBE908EE8EEF0A3EFF07B017A5E
:1008D8008E79E8908F09E4F0A304F07F617E2012FE
:1008E8003B21908EE8E0FEA3E0FF909045EEF0A358
:1008F800EFF0908EE6E0FEA3E0640C4E6003020E7B
:1009080019909045E0FEA3E0FF90902FEEF0A3EF42
:10091800F090902FE0FEA3E0C39401EE94005008FD
:1009280090902FE4F0A304F090902FE0FEA3E0D382
:100938009463EE9400400990902FE4F0A37463F060
:100948007B017A90792F908F09E4F0A37402F07FED
:10095800507E20123B217B017A90792F908EFBE408
:10096800F0A37402F07F0A7E007D007C001247C16C
:1009780074A5908EEAF0A3F07B017A8E79EA908EC6
:10098800FBE4F0A37402F07F0E7E007D007C001271
:1009980047C1E4909049F0A3F07F04FE1239FA228F
:1009A800909045E0FEA3E0FF908EE8EEF0A3EFF014
:1009B800908EE6E0FEA3E0C3940BEE94005068909E
:1009C8008EE6E0A3E0640A4E7006908EE6F0A3F08F
:1009D800908EE8E0FEA3E0FF7C007D64120FBE90DD
:1009E8008EE8ECF0A3EDF0908EE8E0FEA3E0FF7C4B
:1009F800007D0A120FAC908EE8EEF0A3EFF0908E17
:100A0800E6E0FEA3E0FFA3EE8FF0121049908EE817
:100A1800E0FEA3E0D39463EE9400402C908EE8E4CB
:100A2800F0A37463F08021908EE6E0FEA3E0640BEF
:100A38004E7015A3E0FEA3E0FF7C007D0A120FBEF6
:100A4800908EE8EEF0A3EFF07B017A8E79E8908F34
:100A580009E4F0A304F07F617E20123B21908EE828
:100A6800E0FEA3E0FF909045EEF0A3EFF0908EE655
:100A7800E0FEA3E0640C4E6003020E19909045E07E
:100A8800FEA3E0FF909031EEF0A3EFF0909031E0FC
:100A9800FEA3E0C39401EE94005008909031E4F076
:100AA800A304F0909031E0FEA3E0D39463EE9400A9
:100AB8004009909031E4F0A37463F07B017A907957
:100AC80031908F09E4F0A304F07F517E20123B217E
:100AD8007B017A907931908EFBE4F0A37402F07F69
:100AE8000B7E007D007C001247C174A5908EEAF051
:100AF800A3F07B017A8E79EA908EFBE4F0A374026E
:100B0800F07F0E7E007D007C001247C1E490904982
:100B1800F0A3F07F04FE1239FA22909045E0FEA37C
:100B2800E0FF908EE8EEF0A3EFF0908EE6E0FEA3F3
:100B3800E0C3940BEE94005069908EE6E0A3E06465
:100B48000A4E7006908EE6F0A3F0908EE8E0FEA3C1
:100B5800E0FF7C037DE8120FBE908EE8ECF0A3ED79
:100B6800F0908EE8E0FEA3E0FF7C007D0A120FAC57
:100B7800908EE8EEF0A3EFF0908EE6E0FEA3E0FFA3
:100B8800A3EE8FF0121049908EE8E0FEA3E0D39414
:100B980090EE9401402D908EE87401F0A37490F0CB
:100BA8008021908EE6E0FEA3E0640B4E7015A3E072
:100BB800FEA3E0FF7C007D0A120FBE908EE8EEF0E7
:100BC800A3EFF07B017A8E79E8908F09E4F0A30413
:100BD800F07F617E20123B21908EE8E0FEA3E0FFCB
:100BE800909045EEF0A3EFF0908EE6E0FEA3E0646F
:100BF8000C4E6003020E19909045E0FEA3E0FF90B2
:100C08009033EEF0A3EFF0909033E0FEA3E0C394AE
:100C180001EE94005008909033E4F0A304F0909013
:100C280033E0FEA3E0D39490EE9401400A90903311
:100C38007401F0A37490F07B017A907933908F0956
:100C4800E4F0A304F07F527E20123B217B017A90CE
:100C58007933908EFBE4F0A37402F07F0C7E007D64
:100C6800007C001247C174A5908EEAF0A3F07B01C6
:100C78007A8E79EA908EFBE4F0A37402F07F0E7E00
:100C8800007D007C001247C1E4909049F0A3F07FFA
:100C980004FE1239FA22909045E0FEA3E0FF908E00
:100CA800E8EEF0A3EFF0908EE6E0FEA3E0C3940B2D
:100CB800EE94005069908EE6E0A3E0640A4E700658
:100CC800908EE6F0A3F0908EE8E0FEA3E0FF7C03B0
:100CD8007DE8120FBE908EE8ECF0A3EDF0908EE860
:100CE800E0FEA3E0FF7C007D0A120FAC908EE8EED8
:100CF800F0A3EFF0908EE6E0FEA3E0FFA3EE8FF006
:100D0800121049908EE8E0FEA3E0D39490EE94018F
:100D1800402D908EE87401F0A37490F08021908E9D
:100D2800E6E0FEA3E0640B4E7015A3E0FEA3E0FF2F
:100D38007C007D0A120FBE908EE8EEF0A3EFF07BE8
:100D4800017A8E79E8908F09E4F0A304F07F617E40
:100D580020123B21908EE8E0FEA3E0FF909045EE44
:100D6800F0A3EFF0908EE6E0FEA3E0640C4E600383
:100D7800020E19909045E0FEA3E0FF909035EEF04A
:100D8800A3EFF0909035E0FEA3E0C39401EE940049
:100D98005008909035E4F0A304F0909035E0FEA35D
:100DA800E0D39490EE9401400A9090357401F0A33A
:100DB8007490F07B017A907935908F09E4F0A30460
:100DC800F07F537E20123B217B017A907935908EFB
:100DD800FBE4F0A37402F07F0D7E007D007C00121E
:100DE80047C174A5908EEAF0A3F07B017A8E79EA68
:100DF800908EFBE4F0A37402F07F0E7E007D007CF1
:100E0800001247C1E4909049F0A3F07F04FE123924
:100E1800FA22E709F608DFFA8046E709F208DFFA5E
:100E2800803E88828C83E709F0A3DFFA8032E309E9
:100E3800F608DFFA8078E309F208DFFA8070888222
:100E48008C83E309F0A3DFFA806489828A83E0A3B4
:100E5800F608DFFA805889828A83E0A3F208DFFA6D
:100E6800804C80D280FA80C680D4806980F280333A
:100E7800801080A680EA809A80A880DA80E280CA02
:100E8800803389828A83ECFAE493A3C8C582C8CCEC
:100E9800C583CCF0A3C8C582C8CCC583CCDFE9DE46
:100EA800E7800D89828A83E493A3F608DFF9ECFAD8
:100EB800A9F0EDFB2289828A83ECFAE0A3C8C582F7
:100EC800C8CCC583CCF0A3C8C582C8CCC583CCDF49
:100ED800EADEE880DB89828A83E493A3F208DFF9FB
:100EE80080CC88F0EF60010E4E60C388F0ED2402DC
:100EF800B4040050B9F582EB2402B4040050AF23C7
:100F080023458223900E6A73BB010689828A83E097
:100F1800225002E722BBFE02E32289828A83E493FD
:100F280022BB010CE58229F582E5833AF583E022AC
:100F38005006E92582F8E622BBFE06E92582F8E29A
:100F480022E58229F582E5833AF583E49322BB0101
:100F58000989828A83F8E028F022500327F722BB08
:100F6800FE05F8E328F3228A838982F8E49328228D
:100F7800BB010689828A83F0225002F722BBFE0158
:100F8800F322F8BB010DE58229F582E5833AF58362
:100F9800E8F0225006E92582C8F622BBFE05E925BD
:100FA80082C8F222EF8DF0A4A8F0CF8CF0A428CE4E
:100FB8008DF0A42EFE22BC000BBE0029EF8DF0841C
:100FC800FFADF022E4CCF875F008EF2FFFEE33FE0A
:100FD800EC33FCEE9DEC984005FCEE9DFE0FD5F041
:100FE800E9E4CEFD22EDF8F5F0EE8420D21CFEAD4A
:100FF800F075F008EF2FFFED33FD4007985006D548
:10100800F0F222C398FD0FD5F0EA22C2D5EC30E702
:1010180009B2D5E4C39DFDE49CFCEE30E715B2D5DA
:10102800E4C39FFFE49EFE120FBEC3E49DFDE49C53
:10103800FC8003120FBE30D507C3E49FFFE49EFE79
:1010480022C5F0F8A3E028F0C5F0F8E58215827013
:10105800021583E038F022A3F8E0C5F025F0F0E5AA
:1010680082158270021583E0C838F0E822BB010AB5
:1010780089828A83E0F5F0A3E022500687F009E729
:101088001922BBFE07E3F5F009E3192289828A8356
:10109800E493F5F074019322BB0110E58229F582EF
:1010A800E5833AF583E0F5F0A3E0225009E92582CB
:1010B800F886F008E622BBFE0AE92582F8E2F5F098
:1010C80008E222E5832AF583E993F5F0A3E9932260
:1010D800BB010DC58229C582C5833AC58302104963
:1010E8005011C58229F808E5F026F618F5F0E582D2
:1010F80036F622BBFE11C58229F808E225F0F5F084
:10110800F218E23582F222F8E58229F582E5832A8F
:10111800F58374019325F0F5F0E4933822BB010AB6
:1011280089828A83F0E5F0A3F0225006F709A7F038
:101138001922BBFE06F3E5F009F31922F8BB0111E9
:10114800E58229F582E5833AF583E8F0E5F0A3F036
:10115800225009E92582C8F608A6F022BBFE09E953
:101168002582C8F2E5F008F222EF2BFFEE3AFEEDF9
:1011780039FDEC38FC2275F008758200EF2FFFEE80
:1011880033FECD33CDCC33CCC58233C5829BED9AAB
:10119800EC99E58298400CF582EE9BFEED9AFDEC09
:1011A80099FC0FD5F0D6E4CEFBE4CDFAE4CCF9A84F
:1011B8008222B800C1B90059BA002DEC8BF084CF57
:1011C800CECDFCE5F0CBF97818EF2FFFEE33FEED2E
:1011D80033FDEC33FCEB33FB10D703994004EB9958
:1011E800FB0FD8E5E4F9FA227818EF2FFFEE33FE6B
:1011F800ED33FDEC33FCC933C910D7059BE99A40A0
:1012080007EC9BFCE99AF90FD8E0E4C9FAE4CCFBB7
:101218002275F010EF2FFFEE33FEED33FDCC33CC0B
:10122800C833C810D7079BEC9AE899400AED9BFD94
:10123800EC9AFCE899F80FD5F0DAE4CDFBE4CCFAA7
:10124800E4C8F922EF4BFFEE4AFEED49FDEC48FCFD
:1012580022E8600FECC313FCED13FDEE13FEEF1351
:10126800FFD8F122E8600FEFC333FFEE33FEED3312
:10127800FDEC33FCD8F122E0FCA3E0FDA3E0FEA3E3
:10128800E0FF22E0F8A3E0F9A3E0FAA3E0FB22ECF8
:10129800F0A3EDF0A3EEF0A3EFF022A42582F582EF
:1012A800E5F03583F58322E0FBA3E0FAA3E0F92219
:1012B800F8E0FBA3A3E0F925F0F0E58215827002BF
:1012C8001583E0FA38F022EBF0A3EAF0A3E9F02264
:1012D800BB010DE58229F582E5833AF5830212AF59
:1012E8005007E92582F80213E6BBFE07E92582F8D4
:1012F8000213F8E58229F582E5833AF58302140A98
:10130800BB0120E58229F582E5833AF583D0F0D048
:10131800E0F8D0E0F9D0E0FAD0E0FBE8C0E0C0F0B7
:101328000212CF5018E92582F8D083D082D0E0F994
:10133800D0E0FAD0E0FBC082C0830213EFBBFE18F6
:10134800E92582F8D083D082D0E0F9D0E0FAD0E065
:10135800FBC082C08302140122D083D082F8E493B8
:101368007012740193700DA3A393F8740193F5821E
:101378008883E4737402936860EFA3A3A380DFD02B
:1013880083D082F8E4937012740193700DA3A39331
:10139800F8740193F5828883E473740293B5F006B8
:1013A8007403936860E9A3A3A3A380D88A8389827E
:1013B800E473EF4E6012EF60010EEDBB010B898202
:1013C8008A83F0A3DFFCDEFA2289F05007F709DFF1
:1013D800FCA9F022BBFEFCF309DFFCA9F022E6FB26
:1013E80008E6FA08E6F922EBF608EAF608E9F62232
:1013F800E2FB08E2FA08E2F922EBF208EAF208E96D
:10140800F222E493FB740193FA740293F922908E0A
:10141800E8EEF0A3EFF0A31212CF909029E0FEA31C
:10142800E0C4F8540FC868FFEEC454F048FE908E2C
:10143800E8E0FCA3E02FFFEE3C908EEFF0A3EFF086
:10144800908EEFE0FEA3E0FFE4FCFDC006C007902D
:101458008EEA1212AF908EEDE0FEA3E0FF908EFAB6
:10146800EEF0A3EFF0D007D006124879E4908EF1A1
:10147800F0A3F0908EEDE0FEA3E0FF908EF1E0FC8B
:10148800A3E0C39FEC9E40030218CC908EF1E0FECF
:10149800A3E0FF908EE8E0FCA3E02FFFEC3E908EE7
:1014A800EFF0A3EFF0908EEFE0FEA3E08EF01213C2
:1014B8008714D5000016CD0001157D0002177500B0
:1014C8000316250004181D0005000018BF9090277A
:1014D800E0FEA3E090901575F0221212A3EE75F0CD
:1014E80022A42583F583E0FEA3E0FF909067E0FC4B
:1014F800A3E0D39FEC9E4026909027E0FEA3E090C7
:10150800901375F0221212A3EE75F022A42583F52C
:1015180083E0FEA3E0FF909067EEF0A3EFF09090D9
:1015280027E0FEA3E090901375F0221212A3EE7547
:10153800F022A42583F583E0FEA3E0FF909067E006
:10154800FCA3E0C39FEC9E40030218BF909027E0E5
:10155800FEA3E090901375F0221212A3EE75F0220C
:10156800A42583F583E0FEA3E0FF909067EEF0A347
:10157800EFF00218BF909027E0FEA3E09090157559
:10158800F0221212A3EE75F022A42583F583E0FE63
:10159800A3E0FF90906BE0FCA3E0D39FEC9E402675
:1015A800909027E0FEA3E090901375F0221212A30A
:1015B800EE75F022A42583F583E0FEA3E0FF90906A
:1015C8006BEEF0A3EFF0909027E0FEA3E09090136D
:1015D80075F0221212A3EE75F022A42583F583E09C
:1015E800FEA3E0FF90906BE0FCA3E0C39FEC9E405D
:1015F800030218BF909027E0FEA3E090901375F0C7
:10160800221212A3EE75F022A42583F583E0FEA32F
:10161800E0FF90906BEEF0A3EFF00218BF909027D8
:10162800E0FEA3E090901575F0221212A3EE75F07B
:1016380022A42583F583E0FEA3E0FF90906FE0FCF1
:10164800A3E0D39FEC9E4026909027E0FEA3E09075
:10165800901375F0221212A3EE75F022A42583F5DB
:1016680083E0FEA3E0FF90906FEEF0A3EFF0909080
:1016780027E0FEA3E090901375F0221212A3EE75F6
:10168800F022A42583F583E0FEA3E0FF90906FE0AD
:10169800FCA3E0C39FEC9E40030218BF909027E094
:1016A800FEA3E090901375F0221212A3EE75F022BB
:1016B800A42583F583E0FEA3E0FF90906FEEF0A3EE
:1016C800EFF00218BF909027E0FEA3E090901B7502
:1016D800F0221212A3EE75F022A42583F583E0FE12
:1016E800A3E0FF909069E0FCA3E0D39FEC9E402626
:1016F800909027E0FEA3E090901975F0221212A3B3
:10170800EE75F022A42583F583E0FEA3E0FF909018
:1017180069EEF0A3EFF0909027E0FEA3E090901917
:1017280075F0221212A3EE75F022A42583F583E04A
:10173800FEA3E0FF909069E0FCA3E0C39FEC9E400D
:10174800030218BF909027E0FEA3E090901975F06F
:10175800221212A3EE75F022A42583F583E0FEA3DE
:10176800E0FF909069EEF0A3EFF00218BF90902789
:10177800E0FEA3E090901B75F0221212A3EE75F024
:1017880022A42583F583E0FEA3E0FF90906DE0FCA2
:10179800A3E0D39FEC9E4026909027E0FEA3E09024
:1017A800901975F0221212A3EE75F022A42583F584
:1017B80083E0FEA3E0FF90906DEEF0A3EFF0909031
:1017C80027E0FEA3E090901975F0221212A3EE759F
:1017D800F022A42583F583E0FEA3E0FF90906DE05E
:1017E800FCA3E0C39FEC9E40030218BF909027E043
:1017F800FEA3E090901975F0221212A3EE75F02264
:10180800A42583F583E0FEA3E0FF90906DEEF0A39E
:10181800EFF00218BF909027E0FEA3E090901B75B0
:10182800F0221212A3EE75F022A42583F583E0FEC0
:10183800A3E0FF909071E0FCA3E0D39FEC9E4026CC
:10184800909027E0FEA3E090901975F0221212A361
:10185800EE75F022A42583F583E0FEA3E0FF9090C7
:1018680071EEF0A3EFF0909027E0FEA3E0909019BE
:1018780075F0221212A3EE75F022A42583F583E0F9
:10188800FEA3E0FF909071E0FCA3E0C39FEC9E50A4
:1018980026909027E0FEA3E090901975F02212128E
:1018A800A3EE75F022A42583F583E0FEA3E0FF9064
:1018B8009071EEF0A3EFF0908EF1E475F001121044
:1018C8004902147B22909043E0FEA3E08EF01213AD
:1018D80087190100001924000119A500021D26001E
:1018E8000319BD00041A5F000519E100061BD700A3
:1018F800091CB4000A00001D62909043E4F0A304A0
:10190800F0FD7C007F0312545C7D017C007F071290
:10191800545C909085E4F0A37464F022909051E4B4
:10192800F0A304F0909057E0FEA3E0FF909053EEF0
:10193800F0A3EFF0909059E0FEA3E0FF909055EEF1
:10194800F0A3EFF0909059E0A3E090904FEEF0A351
:10195800EFF090903DE0FEA3E064014E7028909176
:1019680083E0FEA3E064014E700A909043F0A374F4
:1019780002F080127D017C007F0D12545C90904330
:10198800E4F0A37402F0909085E0FEA3E064014EB9
:101998006003021D62FDFC7F0412545C2290918357
:1019A800E0FEA3E064014E6003021D62909043F0E4
:1019B800A37404F022E4FDFC7F0412545C7D017CD6
:1019C800007F0112545C7D017C007F0912545C90F9
:1019D8009043E4F0A37406F022909057E0FEA3E051
:1019E800FF90904BE0FCA3E0C39FEC9E404CE4FDCD
:1019F800FC7F0A12545C90906DE0FEA3E0FF90908B
:101A080069E0FCA3E02FFFEC3EFE909071E0FCA3A0
:101A1800E02FFFEE3C909079F0A3EFF0909079E002
:101A2800FCA3E0FD7E277F10120FBEA3EEF0A3EF0C
:101A3800F0909043E4F0A37405F090903DE0FEA38D
:101A4800E04E6003021D627F09FE1239FA9090434E
:101A5800E4F0A37409F022909051E0FEA3E0640141
:101A68004E705C90904FE0FEA3E04E70527B017A7E
:101A780090796B78577C907D01FE7F04120EEA9076
:101A88009051E4F0A37402F0909057E0FEA3E0FFB9
:101A9800909053EEF0A3EFF0909059E0FEA3E0FF92
:101AA800909055EEF0A3EFF0909059E0A3E090905D
:101AB8004FEEF0A3EFF0909043E4F0A37404F0909D
:101AC8009051E0FEA3E064024E705C90904FE0FEFF
:101AD800A3E04E70527B017A90796F78577C907DA5
:101AE80001FE7F04120EEA909051E4F0A37403F013
:101AF800909057E0FEA3E0FF909053EEF0A3EFF034
:101B0800909059E0FEA3E0FF909055EEF0A3EFF01F
:101B1800909059E0A3E090904FEEF0A3EFF09090F2
:101B280043E4F0A37404F0909051E0FEA3E0640352
:101B38004E702B90904FE0FEA3E04E702190903DA8
:101B4800F0A3F0909025E0FEA3E04E7011909083F2
:101B5800F0A37403F07D017C007F0512545C909023
:101B68003DE0FEA3E04E700F7F09FE1239FA909017
:101B780043E4F0A37409F0909057E0FEA3E0D394F7
:101B880003EE94005021909057E0A3E0FF90904B13
:101B9800E0FCA3E0C39FEC9E4003021D62909043CB
:101BA800E4F0A37404F022909057E0FEA3E024FE32
:101BB800FFEE34FFFE90904BE0FCA3E0C39FEC9E49
:101BC8004003021D62909043E4F0A37404F022E401
:101BD800909073F0A3F0909077F0A3F07B017A9047
:101BE8007973908F09F0A304F07F037E25123B21BF
:101BF800E490903FF0A3F090907DF0A3F090907760
:101C0800F0A3F07B017A907977908F09F0A304F024
:101C18007F027E25123B217B017A90796778577C79
:101C2800907D017E007F04120EEAE4FDFC7F021223
:101C3800545CE4FDFC7F0A12545C7D017C007F0348
:101C480012545CE490907FF0A3F090902FE0FCA3F6
:101C5800E0FD7E277F10120FBE90907BEEF0A3EF81
:101C6800F090903712127FEFEEE490902DEEF0A3F3
:101C7800EFF090903712127F7810121259EFEEE4BD
:101C880090902BEEF0A3EFF07B017A90792B908E59
:101C9800FBE4F0A37402F07F067E007D007C001256
:101CA80047C1909043E4F0A3740AF02290902FE08B
:101CB800FEA3E0FF90907FE0FCA3E0C39FEC9E4072
:101CC8002CE4FDFC7F0412545C7D027C007F0D1225
:101CD800545C909043E4F0A37403F090914DE0FEBF
:101CE800A3E0F44E70747F07FE1239FA2290903DFB
:101CF800E0FEA3E064014E600AA3E0FEA3E06401F5
:101D08004E70577F0E7E001239FAE490903DF0A392
:101D1800F0A3F0A3F090914DF0A374FFF0229091FE
:101D280085E0FEA3E064014E7007909043F0A304A1
:101D3800F090903DE0FEA3E064014E600AA3E0FE4F
:101D4800A3E064014E7013E490903DF0A3F0A3F07B
:101D5800A3F090914DF0A374FFF022908EE6EEF080
:101D6800A3EFF0E4908EEAF0A3F0A3F0A3F0A3F0C1
:101D7800A3F0A3F0909041E0FEA3E08EF012138749
:101D88001DA400011DDE00021E1800031E520004DF
:101D98001E9100051ED0000600001F0D908EEE74E7
:101DA80090F0A3745BF0909027E0FEA3E09090156C
:101DB80075F0221212A3EE75F022A42583F583E0B4
:101DC800FEA3E0FF908EEAEEF0A3EFF0A3E4F0A309
:101DD8007410F0021F0D908EEE7490F0A3745FF0F3
:101DE800909027E0FEA3E090901575F0221212A3C0
:101DF800EE75F022A42583F583E0FEA3E0FF908E24
:101E0800EAEEF0A3EFF0A3E4F0A37420F0021F0DB4
:101E1800908EEE7490F0A37463F0909027E0FEA388
:101E2800E090901575F0221212A3EE75F022A42509
:101E380083F583E0FEA3E0FF908EEAEEF0A3EFF0D7
:101E4800A3E4F0A37440F0021F0D908EEE7490F09E
:101E5800A3745DF0909027E0FEA3E090901B75F0CE
:101E6800221212A3EE75F022A42583F583E0FEA3C7
:101E7800E0FF908EEAEEF0A3EFF0A3E4F0A3741075
:101E8800F0908EF07401F0807C908EEE7490F0A348
:101E98007461F0909027E0FEA3E090901B75F0220B
:101EA8001212A3EE75F022A42583F583E0FEA3E0C9
:101EB800FF908EEAEEF0A3EFF0A3E4F0A37420F015
:101EC800908EF07401F0803D908EEE7490F0A374C3
:101ED80065F0909027E0FEA3E090901B75F0221229
:101EE80012A3EE75F022A42583F583E0FEA3E0FF9C
:101EF800908EEAEEF0A3EFF0A3E4F0A37440F09024
:101F08008EF07401F0908EEEE0FEA3E04E700302B6
:101F18002032908EEEE0A3E0F5828E83E0FEA3E00F
:101F2800FF908EE8EEF0A3EFF0908EE6E0FEA3E0DF
:101F3800C3940BEE94004003021FCA908EE6E0A300
:101F4800E0640A4E7006908EE6F0A3F0908EEAE008
:101F5800FEA3E0D39463EE94004019908EE8E0FE6F
:101F6800A3E0FF7C007D64120FBE908EE8ECF0A326
:101F7800EDF08026908EEAE0FEA3E0D39409EE947B
:101F8800004017908EE8E0FEA3E0FF7C007D0A1277
:101F98000FBE908EE8ECF0A3EDF0908EE8E0FEA383
:101FA800E0FF7C007D0A120FAC908EE8EEF0A3EF04
:101FB800F0908EE6E0FEA3E0FFA3EE8FF01210494A
:101FC8008017908EE8E0FEA3E0FF7C007D0A120FE8
:101FD800BE908EE8EEF0A3EFF0908EE8E0FEA3E06E
:101FE800FF908EEEE0FCA3E0F5828C83EEF0A3EF89
:101FF800F0908EF0E0601A908EECE0FEA3E0FFA374
:10200800E0FCA3E0F5828C83E0FCA3E0FD12434DE5
:1020180022908EECE0FEA3E0FFA3E0FCA3E0F582B3
:102028008C83E0FCA3E0FD12426222908EDB121248
:10203800CF908EDB1212AF121075FFAEF0908EDBD0
:102048001212AFE92402F9E43AFA908F02E4F0A3FD
:1020580004F0124171908EDB1212AF900008120F3B
:102068002912136120790020EE0121970200002235
:10207800C1908EDB1212AF9000021210A045F070D2
:10208800030222C1908EDB1212AF121075FFAEF060
:10209800908EDB1212AF9000021210A0FDACF090EF
:1020A8008EDB1212AF9000091212D889828A83122D
:1020B80013B8908EDB1212AF900002E4F5F0121103
:1020C80044908EDB1212AF121075FFAEF0908EDBCB
:1020D8001212AFE92402F9E43AFA908F09E4F0A366
:1020E80004F0123B2122908EDB1212AF90000412F2
:1020F80010A0FFAEF0908EDB1212AF90000212100B
:10210800A06F7003E5F06E70030222C1908EDB129F
:1021180012AF121075FFAEF0908EDB1212AF900066
:10212800021210A0FDACF0908EDB1212AF900009E5
:102138001212D889828A831213B8908EDB1212AFDA
:102148009000021210A0FF908EDB1212AF900004D4
:10215800E5F08FF0121144908EDEE4F0A304F0FB5A
:102168007A8E79DE908F09E4F0A304F07F507E1117
:10217800123B21E4908EDEF0A3F07B017A8E79DEAB
:10218800908F09F0A304F07F527E11123B21229018
:102198008EDB1212AF9000021210A045F0700302FD
:1021A8002295908EDB1212AF9000061210A0C394F5
:1021B8000AE5F094005051908EDB1212AF900004A3
:1021C8001210A0FFAEF0908EDB1212AF9000021238
:1021D80010A06F7003E5F06E602E908EDB1212AFC8
:1021E800121075FFAEF0908EDB1212AF9000021243
:1021F80010A0FDACF0908EDB1212AF900009121205
:10220800D889828A831213B8908EDB1212AF90009D
:10221800061210A0641445F07061908EDB1212AFA4
:10222800121075FFAEF0908EDB1212AF9000021202
:1022380010A0FDACF0908EDB1212AF90000C1212C1
:10224800D889828A831213B8908EDB1212AF90005D
:1022580002E4F5F0121144908EDB1212AF121075E1
:10226800FFAEF0908EDB1212AFE92402F9E43AFADD
:10227800908F09E4F0A304F0123B21908EDB121238
:10228800AF900006E475F0011210D8800F908EDB35
:102298001212AF900006E4F5F0121144908EDB1292
:1022A80012AF9000021210A0FF908EDB1212AF90B6
:1022B8000004E5F08FF012114422908FDBEFF0A3B9
:1022C8001212CFE4781DF608F690894CE0121361DB
:1022D80022F100232C0123CB0223F903242D04240B
:1022E8004E0525000600002520908FDBE0B4031D75
:1022F800FF90894DE0FE04F0744C2EF582E434889A
:10230800F583EFF090894CE004F0022534E49089DD
:102318004CF0A3F07E01FFFD7B017A88794C121303
:10232800BA022534908FDBE0121361234303236440
:1023380006239010239083000023B1908FDBE0FFE9
:1023480090894DE0FE04F0744C2EF582E43488F553
:1023580083EFF090894CE004F0022534908FDBE0A5
:10236800FF90894DE0FE04F0744C2EF582E4348829
:10237800F583EFF090894F7404F0E490894EF09063
:10238800894C7403F0022534908FDBE0FF90894D6F
:10239800E0FE04F0744C2EF582E43488F583EFF007
:1023A80090894C7406F0022534E490894CF0A3F02F
:1023B8007E01FFFD7B017A88794C1213BA0225341D
:1023C800022534908FDBE0FF90894DE0FE04F07425
:1023D8004C2EF582E43488F583EFF0908FDBE090A3
:1023E800894FF0E490894EF090894CE004F0022582
:1023F80034908FDBE0FF90894DE0FE04F0744C2EA2
:10240800F582E43488F583EFF090894EE004F0A378
:10241800E0FF90894EE06F600302253490894CE01C
:1024280004F0022534908FDBE0FF90894DE0FE0434
:10243800F0744C2EF582E43488F583EFF090894CE3
:10244800E004F0022534908FDBE0FF90894DE0FE38
:1024580004F0744C2EF582E43488F583EFF090890B
:102468004DE0244BF582E43488F583E0FE90894DF5
:10247800E0244AF582E43488F583E07C002400FFF8
:10248800EC3E781DF608A6077B017A88794C90897E
:102498004DE024FEFD1256F7781DE6FC08E66F7045
:1024A80002EE6C703D7B017A88794CC003C002C093
:1024B8000190894DE024FEFD908FDC1212AF8982D5
:1024C8008A83D001D002D0031213B8E490894CF06B
:1024D800A3F07E01FFFD7B017A88794C1213BA7F45
:1024E8000122E490894CF0A3F07E01FFFD7B017A84
:1024F80088794C1213BA8034908FDBE0FF90894DB5
:10250800E0FE04F0744C2EF582E43488F583EFF095
:1025180090894C7404F08014E490894CF0A3F07E08
:1025280001FFFD7B017A88794C1213BA7F00229053
:102538008EE6EEF0A3EFF07B017A90791F908EEA99
:102548001212CF909047E0FEA3E0FF908EE8EEF0E5
:10255800A3EFF0908EE6E0FEA3E0640C4E60030269
:10256800260190902BF0A3F0A3F0A3F07A90792B9A
:10257800908EFBF0A37402F07F067E007D007C0045
:102588001247C190902BE0FEA3E0FFE4FCFD909081
:102598003712129790903712127F781012126C909F
:1025A800903712129790903712128B90902DE0FE70
:1025B800A3E0FFE4FCFD12124C909037121297E44E
:1025C8007B107A0EF9F890903712127F1211BA9098
:1025D800903BEEF0A3EFF07B017A90793B908F0966
:1025E800E4F0A304F07F627E20123B21E490904740
:1025F800F0A3F07F05FE1239FA908EE6E0FEA3E024
:10260800640D4E70097F05FE1239FA02271C908E60
:10261800E6E0FEA3E0C3940BEE940040030226CC50
:10262800908EE6E0A3E0640A4E7006908EE6F0A372
:10263800F0908EE8E0FEA3E0FF7C037DE8120FBE79
:10264800908EE8ECF0A3EDF0908EE8E0FEA3E0FFBA
:102658007C007D0A120FAC908EE8EEF0A3EFF090AC
:102668008EE6E0FEA3E0FFA3EE8FF0121049908EF5
:10267800E8E0FEA3E0D3940FEE9427400C908EE898
:102688007427F0A3740FF08014908EE8E0FEA3E0A6
:10269800C3EE94005007E4908EE8F0A3F0908EE823
:1026A800E0FEA3E0FF909047EEF0A3EFF07B017A05
:1026B800907947908F09E4F0A304F07F607E2012A0
:1026C8003B218050908EE8E0FEA3E0FF7C007D0A6D
:1026D800120FBE908EE8EEF0A3EFF0908EE8E0FEC9
:1026E800A3E0C3EE94005007E4908EE8F0A3F090C6
:1026F8008EE8E0FEA3E0FF909047EEF0A3EFF07BBA
:10270800017A907947908F09E4F0A304F07F607E06
:1027180020123B21908EE8E0FEA3E0B4F227EEB44D
:1027280003237F067E001239FAE4909047F0A3F065
:102738007B017A907947908F09F0A304F07F607E3F
:1027480020123B2122908EE8E0FEA3E0B45526EE4D
:10275800B417227F017E001239FAE4909047F0A363
:10276800F07B017A907947908F09F0A304F07F609D
:102778007E20123B2122908EDAEEF0A3EFF0A3EC3C
:10278800F0A3EDF0A31212CFE4908EE1F0908EE367
:10279800F0A3F0A3F0A3F0A3F07BFF7A5B791378A2
:1027A800E87C8E7D01FE7F80120EEA908EDAE0FED4
:1027B800A3E02400FFEE3410908EE6F0A3EFF09033
:1027C800881EE0FF908EE1E0FE04F074E82EF582AA
:1027D800E4348EF583EFF0908EDCE0FEA3E0640134
:1027E8004E704D908EE1E0FF04F074E82FF582E41E
:1027F800348EF5837406F0908EE6E0FEA3E0EEFFDB
:10280800908EE1E0FE04F074E82EF582E4348EF553
:1028180083EFF0908EE6E0A3E0FF908EE1E0FE0407
:10282800F074E82EF582E4348EF583EFF00228B8D0
:10283800908EE1E0FF04F074E82FF582E4348EF521
:10284800837410F0908EE6E0FEA3E0EEFF908EE138
:10285800E0FE04F074E82EF582E4348EF583EFF0A0
:10286800908EE6E0A3E0FF908EE1E0FE04F074E8CD
:102878002EF582E4348EF583EFF0908EDCE0FEA333
:10288800E0EEFF908EE1E0FE04F074E82EF582E4BD
:10289800348EF583EFF0908EDCE0A3E0FF908EE1BC
:1028A800E0FE04F074E82EF582E4348EF583EFF050
:1028B800E4908EE2F0908EE2E0FF908EDCE0FCA3E4
:1028C800E0FDC3EF9DE49C505CA31212AF908EE232
:1028D800E075F002A4F58285F0831210A0E5F0FF00
:1028E800908EE1E0FE04F074E82EF582E4348EF573
:1028F80083EFF0908EDE1212AF908EE2E075F00258
:10290800A4F58285F0831210A0FF908EE1E0FE040A
:10291800F074E82EF582E4348EF583EFF0908EE2C1
:10292800E004F080907B017A8E79E8908EE1E0FDFA
:102938007C00124520908EE4EEF0A3EFF0908EE438
:10294800E0A3E0FF908EE1E0FE04F074E82EF5824B
:10295800E4348EF583EFF0908EE4E0FEA3E0EEFF22
:10296800908EE1E0FE04F074E82EF582E4348EF5F2
:1029780083EFF07B017A8E79E8908EE1E0FD7C00B0
:10298800125562227E007F747D007B017A90791F48
:102998001213BA125819909027E0FEA3E0C39401CD
:1029A800EE94004007E4909027F0A3F01238AF129D
:1029B800519F90902BE0FEA3E0FFE4FCFD90903740
:1029C80012129790903712127F781012126C909012
:1029D8003712129790903712128B90902DE0FEA329
:1029E800E0FFE4FCFD12124C909037121297E47B42
:1029F800107A0EF9F890903712127F1211BA90904F
:102A08003BEEF0A3EFF0E4908ED9F0A3F07B017ACF
:102A18008E79D9908EFAF0A37402F07F0E7E007D35
:102A2800007C00124879908ED9E0FEA3E064A5707E
:102A380003EE64A56003022AF57B017A90792F9052
:102A48008EFAF0A37404F07F0A7E007D007C0012E9
:102A5800487990902FE0FEA3E0C39401EE940040E3
:102A68000E90902FE0A3E0D39463EE940040099079
:102A7800902FE4F0A3742DF0909031E0FEA3E0C312
:102A88009401EE9400400E909031E0A3E0D394635B
:102A9800EE94004009909031E4F0A37432F09090E5
:102AA80033E0FEA3E0C39401EE9400400E9090330F
:102AB800E0A3E0D39490EE9401400A90903374011F
:102AC800F0A37490F0909035E0FEA3E0C39401EE7B
:102AD8009400400E909035E0A3E0D39490EE9401DA
:102AE8004066909035E4F0A37496F0805B90902F48
:102AF800E4F0A3742DF0A3E4F0A37432F0A37401FE
:102B0800F0A37490F0A3E4F0A37496F074A5908EEB
:102B1800DBF0A3F07B017A8E79DB908EFBE4F0A3E7
:102B28007402F07F0E7E007D007C001247C17B019D
:102B38007A90792F908EFBE4F0A37404F07F0A7EDC
:102B4800007D007C001247C17B017A90792F908F1D
:102B580009E4F0A37404F07F507E20123B2190908A
:102B680075E4F0A3740AF07FA07E0F1253827F07EA
:102B78007E001239FA22908EE1EEF0A3EFF0A31254
:102B880012CF908EE6E0FEA3E04E70037F01229004
:102B98008EE1E0A3E05401FF908EE8E4F0A3EFF0AB
:102BA800908EE1E0FEA3E0FFEEC313FEEF13FF906B
:102BB8008EE1EEF0A3EFF0C2AFE4F5F1908EE1E024
:102BC800FEA3E0EEF5F2908EE1E0A3E0F5F375F4F4
:102BD8000175F8AF30FCFD908EE8E0FEA3E06401DB
:102BE8004E7065908EE6E0FEA3E064014E700575B8
:102BF800F8A2800375F8A3D2FE20FEFD908EE6E0D1
:102C0800FEA3E064014E7017908EE375F001121276
:102C1800B8E5FC120F78E4908EE6F0A3F0802990D6
:102C28008EE3E475F0011212B8E5FC120F78908E6D
:102C3800E3E475F0011212B8E5FD120F78908EE604
:102C480074FF75F0FE121049908EE6E0FEA3E0D303
:102C58009400EE94005003022D5D908EE6E0A3E010
:102C68008EF01213872C7D00012C9D00022CCC00C5
:102C78000300002D0B75F8A8D2FE20FEFD908EE310
:102C8800E475F0011212B8E5FA120F78E4908EE6B6
:102C9800F0A3F080B375F8ACD2FE20FEFD908EE371
:102CA800E475F0011212B8E5FA120F78908EE3E499
:102CB80075F0011212B8E5FB120F78E4908EE6F079
:102CC800A3F0808475F8AED2FE20FEFD908EE3E47A
:102CD80075F0011212B8E5FA120F78908EE3E475D8
:102CE800F0011212B8E5FB120F78908EE3E475F04C
:102CF800011212B8E5FC120F78E4908EE6F0A3F00A
:102D0800022C5075F8AFD2FE20FEFD908EE3E475DC
:102D1800F0011212B8E5FA120F78908EE3E475F01C
:102D2800011212B8E5FB120F78908EE3E475F001FA
:102D38001212B8E5FC120F78908EE3E475F00112D8
:102D480012B8E5FD120F78908EE674FF75F0FC124C
:102D58001049022C50E4F5F8D2AFFF22908EDD1214
:102D680012CF908EE0ECF0A3EDF0908EE0E0FEA3A1
:102D7800E07802C333CE33CED8F924BFF582745B32
:102D88003EF583E493FE740193FF908EDD1212AF3B
:102D9800EE8FF0121125908EE0E0FEA3E07802C3DA
:102DA80033CE33CED8F924C1F582745B3EF583E483
:102DB80093740193FF908EDD1212AF900008EF120A
:102DC8000F8A908EDD1212AF900008120F2912138D
:102DD800612DE6002E1D012E770200002ED57BFF07
:102DE8007A4D79ECC003C002C001908EDD1212AF9B
:102DF800900009121308908EDD1212AF900002E4C1
:102E0800F5F0121144908EDD1212AF900004E4F533
:102E1800F012114422908EDD1212AF121075FFAE1F
:102E2800F0908EDD1212AFE92402F9E43AFA908F9D
:102E380002E4F0A304F0124171908EDD1212AF90FB
:102E480000021210A0FF908EDD1212AF900004E570
:102E5800F08FF01211447BFF7A5279C8C003C00288
:102E6800C001908EDD1212AF900009121308227B68
:102E7800FF7A567919C003C002C001908EDD121284
:102E8800AF9000091213087BFF7A567953C003C02C
:102E980002C001908EDD1212AF90000C1213089040
:102EA8008EDD1212AF900002E4F5F0121144908EFC
:102EB800DD1212AF900004E4F5F0121144908EDD9B
:102EC8001212AF900006E4F5F0121144227B007A4A
:102ED800007900C003C002C001908EDD1212AF90CD
:102EE80000091213087B007A007900C003C002C0F1
:102EF80001908EDD1212AF90000C121308908EDD37
:102F08001212AF900002E4F5F0121144908EDD1217
:102F180012AF900004E4F5F0121144908EDD121205
:102F2800AF900006E4F5F012114422908EE1EEF025
:102F3800A3EFF0A31212CF908EE6E0FEA3E04E704E
:102F4800037F0122908EE1E0A3E05401FF908EE818
:102F5800E4F0A3EFF0908EE1E0FEA3E0FFEEC313F0
:102F6800FEEF13FF908EE1EEF0A3EFF0C2AFE4F5B1
:102F7800F1908EE1E0FEA3E0EEF5F2908EE1E0A3A1
:102F8800E0F5F375F40175F88F30FCFD908EE8E0FC
:102F9800FEA3E064014E7057908EE6E0FEA3E06465
:102FA800014E701A75F882908EE375F0011212B80E
:102FB800120F10F5FCE4908EE6F0A3F0802C75F863
:102FC80083908EE3E475F0011212B8120F10F5FC2D
:102FD800908EE3E475F0011212B8120F10F5FD900F
:102FE8008EE674FF75F0FE121049D2FE20FEFD90A9
:102FF8008EE6E0FEA3E0D39400EE94005003023086
:10300800FB908EE6E0A3E08EF012138730240001D7
:1030180030400002306B0003000030A475F888903F
:103028008EE3E475F0011212B8120F10F5FAE4906D
:103038008EE6F0A3F00230EE75F88C908EE3E4751E
:10304800F0011212B8120F10F5FA908EE3E475F041
:10305800011212B8120F10F5FBE4908EE6F0A3F0FF
:103068000230EE75F88E908EE3E475F0011212B816
:10307800120F10F5FA908EE3E475F0011212B812EF
:103088000F10F5FB908EE3E475F0011212B8120FE1
:1030980010F5FCE4908EE6F0A3F0804A75F88F9066
:1030A8008EE3E475F0011212B8120F10F5FA908E43
:1030B800E3E475F0011212B8120F10F5FB908EE3DD
:1030C800E475F0011212B8120F10F5FC908EE3E4CB
:1030D80075F0011212B8120F10F5FD908EE674FF0C
:1030E80075F0FC121049D2FE20FE03022FF780F87B
:1030F800022FF7E4F5F8D2AFFF22908EE6EEF0A3A8
:10310800EFF0908EE6E0FEA3E08EF012138731EE2A
:1031180000013223000232590003328F0004313695
:10312800000531360006313E0008000032C47F0435
:103138007E001239FA22E4909049F0A3F090901F93
:10314800E0FEA3E0FFC374049FFFE49E90901FF08D
:10315800A3EFF090901FE0FEA3E0D39400EE94005C
:10316800400990901FE4F0A37404F07B017A9079F1
:103178001F908F09E4F0A304F07F007E21123B2109
:103188007B017A90791F908EFBE4F0A37402F07FA4
:10319800007E007D007C001247C190901FE0FEA3D6
:1031A800E064044E70167BFF7A5B799E908F09F07D
:1031B800A3740BF07F007E30123B2122909027E011
:1031C800FEA3E0FF7C007D22120FAC74FF2FF97480
:1031D8008F3EFA7B01908F09E4F0A37414F07F000E
:1031E8007E30123B2122909049E4F0A304F09090A5
:1031F8002FE0FEA3E0FF909045EEF0A3EFF07B01F7
:103208007A907945908F09E4F0A304F07F617E20DD
:10321800123B217F0F7E001239FA22909049E4F088
:10322800A37402F0909031E0FEA3E0FF909045EE89
:10323800F0A3EFF07B017A907945908F09E4F0A331
:1032480004F07F617E20123B217F0F7E001239FA45
:1032580022909049E4F0A37403F0909033E0FEA329
:10326800E0FF909045EEF0A3EFF07B017A9079456E
:10327800908F09E4F0A304F07F617E20123B217F48
:103288000F7E001239FA22909049E4F0A37404F0FA
:10329800909035E0FEA3E0FF909045EEF0A3EFF0AC
:1032A8007B017A907945908F09E4F0A304F07F615F
:1032B8007E20123B217F0F7E001239FA22C0E0C027
:1032C80083C082C0D075D010AF9F750C008F0D538E
:1032D80097FEE529D39400400302347F752A00E560
:1032E8002212136132F90033480134040200003419
:1032F8007CE521650D7002E50C600302347F908B3C
:103308006CE50DF07523017522017526FF7527FF01
:10331800E526650CE527650D25E0FFE433FE74938B
:103328002FF58274583EF583E493F50E740193F5F6
:103338000FE526FFE50EF526EF650FF52702347F2A
:10334800AE230523746C2EF582E4348BF583E50DEA
:10335800F0E523C39407502DE526650CE527650D98
:1033680025E0FFE433FE74932FF58274583EF5830D
:10337800E493F50E740193F50FE526FFE50EF526A7
:10338800EF650FF527E5236407704E908B6DE064B9
:10339800107046E526650CE527650D25E0FFE4334A
:1033A800FE74932FF58274583EF583E493F50E74FA
:1033B8000193F50FE526FFE50EF526EF650FF527D6
:1033C800908B72E02409F524D394FC400675220002
:1033D80002347F75220202347FE523C39408500328
:1033E80002347F908B73E0B5260D908B72E0B52781
:1033F80006752800752902752200807BAE230523F7
:10340800746C2EF582E4348BF583E50DF0E5241415
:10341800FFE523C39F502DE526650CE527650D259F
:10342800E0FFE433FE74932FF58274583EF583E48D
:1034380093F50E740193F50FE526FFE50EF526EFDB
:10344800650FF527E523C39524402C746B2524F5D7
:1034580082E4348BF583E0B52615746A2524F58259
:10346800E4348BF583E0B5270675280075290275C5
:1034780022008003752200D0D0D082D083D0E032E1
:1034880042914B000042914D00004290B300006011
:10349800228FFD0000425034300000000000000080
:1034A8000000000000000000000001019000010081
:1034B8000103E7000160209093000100020003006F
:1034C80004000600070008000A000B000C000D00AD
:1034D8000F0010001200140015C100011F00610048
:1034E800884C000000000000000000000000000000
:1034F80000000000000000000000000000000000C4
:1035080000000000000000000000000000000000B3
:1035180000000000000000000000000000000000A3
:103528000000000000000000000000000000000093
:103538000000000000000000000000000000000083
:103548000000000000000000000000000000000073
:103558000000000000000000000000000000000063
:103568000000000000000000000000000000000053
:103578000000000000000000000000000000000043
:103588000000000000000000000000000000000033
:103598000000000000000000000000000000000023
:1035A8000000000000000000000000000000000013
:1035B8000000000000000000000000000000000003
:1035C80000000000000000000000000000000000F3
:1035D80000000000000000000000000000000000E3
:1035E800000041894C0041894D0041894E004189C4
:1035F8004F00022B000000E4908EE0F0908B6DE00D
:1036080012136136180336890636DF100000375565
:10361800908B70E0FEA3E04E600F908B70E0FEA3ED
:10362800E0D39473EE940040037F0022908C98E5D9
:1036380021F0A37403F0908B70E0A3E025E0908C58
:103648009AF0E02405F525908B6EE0FEA3E025E0D6
:10365800FFEE33908EDEF0A3EFF0908B6EE0FEA3CA
:10366800E0FF7B017A8C799B908C9AE0FD908EE646
:10367800E4F0A3EDF0122B7E908EE07401F0023797
:1036880058908B6EE0FEA3E0FF7B017A8B797090F7
:103698008EE6E4F0A37402F0122F33752508E49047
:1036A8008EDDF0908EDDE0C394065023E0246CF5A7
:1036B80082E4348BF583E0FF908EDDE02498F58278
:1036C800E4348CF583EFF0908EDDE004F080D49044
:1036D8008EE07401F08079908B70E0FEA3E04E607C
:1036E8000F908B70E0FEA3E0D3947DEE940040032E
:1036F8007F0022908B6EE0FEA3E0FF7B017A8B793E
:1037080073908B72E0FD908EE6E4F0A3EDF0122F3B
:1037180033752508E4908EDDF0908EDDE0C39406C5
:103728005023E0246CF582E4348BF583E0FF908E1F
:10373800DDE02498F582E4348CF583EFF0908EDD9B
:10374800E004F080D4908EE07401F080037F0022C2
:10375800908EE0E0FF22909043E0FEA3E064054EE7
:10376800600E909043E0A3E0640A4E60030238952F
:1037780090914BE475F00112104990914BE0FEA333
:10378800E0C39404EE94005003023895E490914B02
:10379800F0A3F0909043E0FEA3E08EF01213873779
:1037A800B300053814000A000038959090371212BB
:1037B8007FE47B01FAF9F812117190903712129791
:1037C80090904F74FFF5F012104990907DE475F0D9
:1037D8000112104990907DE0FCA3E0FD90907BE001
:1037E800FEA3E0FF120FAC7C007D64120FBE909028
:1037F80077EEF0A3EFF07A907977908F09E4F0A351
:1038080004F07F027E25123B2102389590907FE4D8
:1038180075F00112104990907FE0FCA3E0FD9090B4
:103828007BE0FEA3E0FF120FAC7C007D64120FBEAC
:10383800909077EEF0A3EFF07B017A907977908FF4
:1038480009E4F0A304F07F047E25123B217B017A72
:1038580090797F908F09E4F0A37402F07F5A7E205C
:10386800123B21909083E0FEA3E0C3EE9400400A4F
:1038780090908374FFF5F0121049909083E0FEA3B6
:10388800E064014E7007FDFC7F0612545C90908541
:10389800E0FEA3E0D39400EE9400400A9090857473
:1038A800FFF5F01210492290901FE0FEA3E0D39498
:1038B80000EE9400400990901FE4F0A37404F07B9C
:1038C800017A90791F908F09E4F0A304F07F007EBD
:1038D80021123B2190901FE0FEA3E064044E701774
:1038E8007BFF7A5B799E908F09F0A3740BF07F00C1
:1038F8007E30123B218029909027E0FEA3E0FF7CD8
:10390800007D22120FAC74FF2FF9748F3EFA7B01F1
:10391800908F09E4F0A37414F07F007E30123B21ED
:103928007BFF7A5B7993908F09E4F0A3740BF07FA7
:10393800007E31123B21909023E0FEA3E0D39464F3
:10394800EE94004009909023E4F0A37464F0909002
:1039580023E0FEA3E0C3940AEE940050099090235C
:10396800E4F0A3740AF0909023E0FEA3E0FF124B6A
:10397800317B017A907923908F09E4F0A304F07FDA
:10398800007E12123B21909025E0FEA3E0D3940123
:10399800EE94004008909025E4F0A304F090902560
:1039A800E0FEA3E0FFC374019FFFE49EFE1250C037
:1039B8007B017A907925908F09E4F0A304F0FF7ECB
:1039C80012123B21909021E0FEA3E0C39403EE94F1
:1039D800004009909021E4F0A37403F07B017A90F1
:1039E8007921908F09E4F0A304F07FFF7E0F123B4A
:1039F8002122908EEDEEF0A3EFF0908EEDE0FEA385
:103A0800E025E0FFEE33FE74932FF58274903EF5C7
:103A180083E0FEA3E0FF908EEFEEF0A3EFF0908E30
:103A2800EDE0FEA3E08EF01213873B1500043A4642
:103A380000073B1500083A61000B00003B157B01AD
:103A48007A907929908F09E4F0A304F07F0A7E2008
:103A5800123B21023B15023B15909067E0FCA3E066
:103A6800FD7F027E0012426290906BE0FCA3E0FDB5
:103A78007F047E0012426290906FE0FCA3E0FD7F1D
:103A8800087E00124262909069E0FCA3E0FD7F028C
:103A98007E0012434D90906DE0FCA3E0FD7F047E14
:103AA8000012434D909071E0FCA3E0FD7F087E007A
:103AB80012434D90905BE0FCA3E0FD7F107E001266
:103AC800426290905FE0FCA3E0FD7F207E001242FE
:103AD80062909063E0FCA3E0FD7F407E00124262AA
:103AE80090905DE0FCA3E0FD7F107E0012434D90B6
:103AF8009061E0FCA3E0FD7F207E0012434D909092
:103B080065E0FCA3E0FD7F407E0012434D908EEF00
:103B1800E0FEA3E0FF12568D22908F04EEF0A3EF93
:103B2800F0A31212CF908F04E0A3E05401908F0B02
:103B3800F0908F04E0FEA3E0FFEEC313FEEF13FF47
:103B4800908F04EEF0A3EFF0E4F5F1908F04E0FE1F
:103B5800A3E0EEF5F2908F04E0A3E0F5F375F4012D
:103B680075F88F30FCFD908F0BE0603C908F09E07A
:103B7800FEA3E0D39400EE9400402D75F883908F57
:103B880006E475F0011212B8120F10F5FC908F06BA
:103B9800E475F0011212B8120F10F5FDD2FE908FE5
:103BA8000974FFF5F012104975F88F908F09E0FE3F
:103BB800A3E0C39402EE9400404B908F06E475F0A6
:103BC800011212B8120F10F5FA908F06E475F00181
:103BD8001212B8120F10F5FB908F06E475F001125F
:103BE80012B8120F10F5FC908F06E475F00112124E
:103BF800B8120F10F5FDD2FE908F0974FF75F0FE14
:103C080012104980A6908F09E0FEA3E04E6023754C
:103C1800F88C908F06E475F0011212B8120F10F5A7
:103C2800FA908F06E475F0011212B8120F10F5FB26
:103C3800D2FEE4F5F822908ED91212CF7E007F1EB4
:103C48007D007B017A91796B1213BA908ED912128A
:103C5800AF9088221212CF908ED91212AFE92402A7
:103C6800F9E43AFA9088251212CF908ED91212AF41
:103C7800E92404F9E43AFA9088281212CF908ED9F0
:103C88001212AFE92406F9E43AFA90882B1212CFFF
:103C9800908ED91212AFE92408F9E43AFA90882EE6
:103CA8001212CF908ED91212AFE9240AF9E43AFA27
:103CB8009088311212CF908ED91212AFE9240CF9E4
:103CC800E43AFA9088341212CF908ED91212AFE9E2
:103CD800240EF9E43AFA9088371212CF908ED9124E
:103CE80012AFE92410F9E43AFA90883A1212CF9008
:103CF8008ED91212AFE92412F9E43AFA90883D12EB
:103D080012CF908ED91212AFE92416F9E43AFA903C
:103D180088401212CF908ED91212AFE92418F9E414
:103D28003AFA9088431212CF908ED91212AFE92432
:103D38001AF9E43AFA9088461212CF908ED91212E4
:103D4800AFE9241CF9E43AFA9088491212CF22907C
:103D58008EDAEEF0A3EFF0A3ECF0A3EDF0E4781820
:103D6800F608F608F6A3F0A3F07BFF7A5A79937861
:103D7800E07C8E7D01FE7F80120EEA908EDAE0FEF6
:103D8800A3E02400FFEE3410908EDEF0A3EFF09055
:103D98008EDEE0FEA3E0FF908820EEF0A3EFF09027
:103DA800881F7403F090881EE0FF7818E60624E068
:103DB800F582E4348EF583EFF0E60624E0F582E43C
:103DC800348EF5837403F0908EDEE0FEA3E0EEFF00
:103DD800E60624E0F582E4348EF583EFF0908EDE7B
:103DE800E0A3E0FFE60624E0F582E4348EF583EFF5
:103DF800F0908EDCE0FEA3E0EEFFE60624E0F5821C
:103E0800E4348EF583EFF0908EDCE0A3E0FFE60665
:103E180024E0F582E4348EF583EFF07B017A8E7925
:103E2800E0E6FD7C001245207819A60608A60718CA
:103E3800E608E6FF7818E60624E0F582E4348EF515
:103E480083EFF008E6FE08E6EEFF7818E60624E0C1
:103E5800F582E4348EF583EFF07B017A8E79E0E623
:103E6800FD7C0012556222908EDA1212CF7E007FFE
:103E7800807D007B017A8979561213BA908EDA1206
:103E880012AF120F10908950F0908EDA1212AF9084
:103E98000001120F29908951F0908820E0FEA3E0DC
:103EA800FF908952EEF0A3EFF0908951E06403701F
:103EB80074908EDA1212AF900002120F29FFC3130A
:103EC800FF908954E4F0A3EFF0E47818F67818E648
:103ED800FF908954E0FCA3E0FDC3EF9DE49C506C87
:103EE800908EDA1212AFE675F0029000031212A358
:103EF800120F29FE908EDA1212AF7818E675F002CA
:103F08009000041212A3120F297C002400FFEC3E3B
:103F1800FE7818E675F0029089561212A3EEF0A307
:103F2800EFF00680A8908EDA1212AF900004120FFC
:103F380029FE908EDA1212AF900005120F297C002C
:103F48002400FFEC3E908954F0A3EFF07B017A89BE
:103F58007950C002C0017A8A796C908EE01212CF33
:103F6800D001D0021246057B017A89795022908EC1
:103F7800E6EEF0A3EFF0E4A3F0A3F0908EE6E0FE07
:103F8800A3E08EF01213873FBF00013FE300033F19
:103F9800F80006400800073FD30008402C000940FD
:103FA8001D000A4025000B4047000C404F000D4003
:103FB80068000E0000407990903DE0FEA3E04E605E
:103FC800030240797F08FE1239FA2290903DE4F00E
:103FD800A304F07F077E001239FA2290903DE0FE9C
:103FE800A3E04E7003024079E490903DF0A3F022E4
:103FF80090903DE0FEA3E04E7077FFFE1239FA2262
:1040080090903DE0FEA3E04E70671257287F047E33
:10401800001239FA227F077E001239FA22E4FFFEE5
:104028001239FA2290901FE0FEA3E064044E700754
:104038007F03FE1239FA227F027E001239FA227FAC
:10404800057E001239FA2290903DE0FEA3E04E7002
:10405800207F0DFE1239FA90903FE4F0A304F0227D
:1040680090903FE0FEA3E04E6007E490903FF0A3FD
:10407800F022908ED9EFF0E02404F582E43488F53C
:1040880083E012136141660040B20140B20240EE83
:104098000340EE04410C05410C06412A0740D009B3
:1040A80040D00A41480D00004170908ED9E075F06B
:1040B80002A4240CF9748835F0FA7B017D017C0098
:1040C8007F027E0012277E22908ED9E075F002A42E
:1040D800240CF9748835F0FA7B017D017C007F0897
:1040E8007E0012277E22908ED9E075F002A4240C5F
:1040F800F9748835F0FA7B017D017C007F037E002E
:1041080012277E22908ED9E075F002A4240CF9744F
:104118008835F0FA7B017D017C007F047E00122740
:104128007E22908ED9E075F002A4240CF9748835AB
:10413800F0FA7B017D017C007F057E0012277E223C
:10414800908ED9E075F002A4240CF9748835F0FA41
:104158007B017D017C007F0D7E0012277E227D0E73
:104168007C00E4FFFE123D5722908EFDEEF0A3EF97
:10417800F0A31212CF908EFDE0A3E05401908F04BB
:10418800F0908EFDE0FEA3E0FFEEC313FEEF13FFF9
:10419800908EFDEEF0A3EFF0E4F5F1908EFDE0FED9
:1041A800A3E0EEF5F2908EFDE0A3E0F5F375F401DF
:1041B80075F8AF30FCFD908F02E0FEA3E0D39400C9
:1041C800EE9400500302425ED2FE20FEFD908F0462
:1041D800E0703D908F02E0FEA3E0D39400EE9400DF
:1041E800402E908EFFE475F0011212B8E5FA120F16
:1041F80078908EFFE475F0011212B8E5FB120F7883
:10420800908F047401F0908F0274FFF5F01210493A
:10421800908F04E0B4019F908F02E0FEA3E0D39456
:1042280000EE94004090908EFFE475F0011212B8F1
:10423800E5FC120F78908EFFE475F0011212B8E5D4
:10424800FD120F78E4908F04F0908F0274FFF5F060
:104258001210490241BEE4F5F822908EF1EEF0A367
:10426800EFF0A3ECF0A3EDF07B017A8E79F3A312C3
:1042780012CF908EF1E0A3E030E015908EF5121287
:10428800AF908F09E4F0A304F07F037E20123B2156
:10429800908EF1E0A3E030E415908EF51212AF9005
:1042A8008F09E4F0A304F07420FFFE123B21908EE6
:1042B800F1E0A3E030E515908EF51212AF908F096A
:1042C800E4F0A304F07F227E20123B21908EF1E0DF
:1042D800A3E030E615908EF51212AF908F09E4F046
:1042E800A304F07F247E20123B21908EF1E0A3E00E
:1042F80030E115908EF51212AF908F09E4F0A30407
:10430800F07F407E20123B21908EF1E0A3E030E266
:1043180015908EF51212AF908F09E4F0A304F07F88
:10432800427E20123B21908EF1E0A3E030E315900D
:104338008EF51212AF908F09E4F0A304F07F447E4B
:1043480020123B2122908EF1EEF0A3EFF0A3ECF0C7
:10435800A3EDF07B017A8E79F3A31212CF908EF140
:10436800E0A3E030E015908EF51212AF908F09E4CB
:10437800F0A304F07F047E20123B21908EF1E0A38D
:10438800E030E415908EF51212AF908F09E4F0A397
:1043980004F07F217E20123B21908EF1E0A3E030D3
:1043A800E515908EF51212AF908F09E4F0A304F092
:1043B8007F237E20123B21908EF1E0A3E030E615AA
:1043C800908EF51212AF908F09E4F0A304F07F25C8
:1043D8007E20123B21908EF1E0A3E030E115908E13
:1043E800F51212AF908F09E4F0A304F07F417E200C
:1043F800123B21908EF1E0A3E030E215908EF51289
:1044080012AF908F09E4F0A304F07F437E20123BA3
:1044180021908EF1E0A3E030E315908EF51212AFF3
:10442800908F09E4F0A304F07F457E20123B2122FF
:10443800908EEBEEF0A3EFF07BFF7A5B79A978ED35
:104448007C8E7D017E007F04120EEA7BFF7A5B7909
:10445800AD78F17C8E7D017E007F12120EEA908E7F
:10446800EBE0FEA3E08EF0121387448E0001449522
:104478000002449D000344A5000444AD000544B572
:1044880000060000451FE4908F03F08026908F03FC
:104498007401F0801E908F037402F08016908F03D1
:1044A8007403F0800E908F037404F08006908F03DD
:1044B8007405F0909021E0FEA3E0C39404EE94000C
:1044C8005029909021E0A3E024EDF582748E3EF50A
:1044D80083E0FF908F03E075F003A424F1F582E4F4
:1044E800348EF5831212AFEF120F567B017A907952
:1044F80087908F09E4F0A37406F07F057E25123BB0
:10450800217B017A907987908F09E4F0A37406F0F3
:104518007F0B7E25123B2122908FE51212CF908FC0
:10452800E8ECF0A3EDF074FFA3F0A3F0A37480F01F
:10453800A37405F0E4A3F0908FE874FFF5F012106F
:104548005F45F070030245ED908FE5E475F00112C8
:1045580012B8120F10908FEEF07B017A8F79EE90DF
:104568008FF41212CF124C5A908FEAE0FCA3E0FDB0
:10457800908FEEE0FEEC6EFEEDFF908FEAEEF0A37A
:10458800EFF0E4908FEFF0A3F0908FEFE0FEA3E060
:10459800C39408EE64809480509D908FEAE0FEA357
:1045A800E0EE30E721908FEAA3E025E0FFEE33FE4E
:1045B800A3E0FCA3E0FDEE6CFEEF6DFF908FEAEE4A
:1045C800F0A3EFF08013908FEAE0FEA3E025E0FF70
:1045D800EE33908FEAF0A3EFF0908FEFE475F001DF
:1045E80012104980A47B017A8F79EA908FF4121215
:1045F800CF124A8D908FEAE0FEA3E0FF22908EDD75
:104608001212CFE47819F608F608F608F6908EDD4F
:104618001212AFE92406F9E43AFA908EE31212CFA7
:104628007B007A007900908EE01212CF908EDD1216
:1046380012AF9000021210A02400FFE5F034F078C9
:1046480019F608A607908EDD1212AF900001120F1E
:1046580029121361466C0346E70646E71046E783CE
:10466800000046E7E4781BF608F6908EDD1212AFDC
:104678009000041210A0FF781BE6FC08E6C39FEC2C
:1046880095F0505B908EDD1212AFE92406F9E43AFA
:10469800FA18E6FE08E625E0FFEE33FEE92FF9EA10
:1046A8003EFA121075FFAEF018E6FC08E6FD781920
:1046B800E6FA08E62DFDEA3CFC90882275F003ED49
:1046C8001212A3EC75F003A42583F5831212AFEE42
:1046D8008FF0121125781C06E618700106808B22CF
:1046E800908EE6EEF0A3EFF0908EE6E0FEA3E08E6B
:1046F800F012138747230001470800020000473CD7
:10470800909029E0FEA3E0C39414EE940050259005
:104718009029E475F0011210498019909029E0FE63
:10472800A3E0D39401EE9400400A90902974FFF519
:10473800F01210497B017A907929908F09E4F0A34F
:1047480004F07F4E7E20123B217B017A907967909E
:104758008EEDE4F0A37406F0E4FFFE1214169090B8
:1047680067E0FCA3E0FD7F027E0012426290906B3E
:10477800E0FCA3E0FD7F047E0012426290906FE0AF
:10478800FCA3E0FD7F087E00124262909069E0FC85
:10479800A3E0FD7F027E0012434D90906DE0FCA3E4
:1047A800E0FD7F047E0012434D909071E0FCA3E091
:1047B800FD7F087E0012434D22908EF412129790CE
:1047C8008EF81212CF908EF81212AF908EFBE0FE88
:1047D800A3E0FF908F09EEF0A3EFF07F007EFF12B9
:1047E8003B2190919E74A5F0908EF412127F781060
:1047F800121259EFE490919FEFF0908EF412127F0D
:104808007808121259EFE49091A0EFF0908EF4120C
:10481800127FEFE49091A1EFF0A374FFF0E4A3F00E
:10482800908EFBE0FEA3E0EE9091A4F0908EFBA3A7
:10483800E09091A5F07B017A91799E908F09E4F040
:10484800A37404F07F087E00123B217B017A9179E2
:104858009E908F02E4F0A37402F07F087E0012415C
:104868007190919EE060097F017E0012538280DB87
:1048780022908EF3121297908EF71212CF90919E7B
:10488800745AF0908EF312127F7810121259EFE4D6
:1048980090919FEFF0908EF312127F7808121259C0
:1048A800EFE49091A0EFF0908EF312127FEFE49076
:1048B80091A1EFF0A374FFF0E4A3F0908EFAE0FE6C
:1048C800A3E0EE9091A4F0908EFAA3E09091A5F069
:1048D8007B017A91799E908F09E4F0A37404F07FAC
:1048E800087E00123B217B017A91799E908F02E429
:1048F800F0A37402F07F087E0012417190919EE04F
:1049080060097F017E0012538280DB908EF71212BD
:10491800AF908EFAE0FEA3E0FF908F02EEF0A3EFD7
:10492800F07F007EFF124171227594017595027522
:104938008E0075930075C87075C96075F800787F2A
:10494800E4F6D8FD9080007F007E80E4F0A3DFFCD1
:10495800DEFA75812C02499B0257D7E493A3F8E449
:1049680093A34003F68001F208DFF48029E493A3BF
:10497800F85407240CC8C333C4540F4420C88340D8
:1049880004F456800146F6DFE4800B0102040810A7
:10499800204080903488E47E019360BCA3FF543F9C
:1049A80030E509541FFEE493A360010ECF54C025DF
:1049B800E060A840B8E493A3FAE493A3F8E493A3CF
:1049C800C8C582C8CAC583CAF0A3C8C582C8CAC533
:1049D80083CADFE9DEE780BEE529640260037F0061
:1049E800221235FF908EDCEFF0E07006F529F522F3
:1049F800FF2274FFF526F527E4908ED9F0E52524EB
:104A0800FEFF908ED9E0C39F504AE02498F582E4D7
:104A1800348CF583E0FFE526EF652725E0FFE433D6
:104A2800FE74932FF58274583EF583E493FE740167
:104A380093FF908EDAEEF0A3EFF0E526FF908EDA82
:104A4800E0FCA3E0FDECF526EF6DF527908ED9E0AC
:104A580004F080A974962525F582E4348CF583E565
:104A680027F074972525F582E4348CF583E526F044
:104A7800E4F522752301752903908C98E0F59E9042
:104A88008EDCE0FF22908FF11212CFE4908FF9F0C4
:104A9800A3F0908FF7F0A3F0908FF7E0FEA3E0C3A8
:104AA8009410EE64809480506B908FF41212AF12C1
:104AB8001075FDACF0908FF7E0A3E0FF7E00740165
:104AC800A807088005C333CE33CED8F9FFEE5CFEC5
:104AD800EF5D4E6033908FF9E0FCA3E0FD908FF717
:104AE800E0A3E0FFC3740F9FFF7E007401A80708CE
:104AF8008005C333CE33CED8F9FFEC4EFEED4FFF21
:104B0800908FF9EEF0A3EFF0908FF7E475F00112B3
:104B180010498084908FF9E0FEA3E0FF908FF11296
:104B280012AFEE8FF012112522908EE8EEF0A3EF6F
:104B3800F0908EE8E0FEA3E0D39464EE9400400980
:104B4800908EE8E4F0A37464F07B017A8E79EA90A1
:104B58008F02E4F0A37402F07F807E00124171900E
:104B68008EEA745AF0A3E4F0A3E0FEA3E054FBFF3E
:104B7800908EECEEF0A3EFF07B017A8E79EA908FBD
:104B880009E4F0A37402F07F807E00123B21908E2E
:104B9800E8E0A3E0FEE42432FFE43EA3F0A3EFF054
:104BA800A3E4F0A37464F07B017A8E79EA908F090C
:104BB800E4F0A37402F07F827E00123B2122C0E061
:104BC800C0F0C083C082C0D075D000C000C001C092
:104BD80002C003C004C005C006C007C2C6125130D7
:104BE800908D92E0600214F0908D93E0600214F0D2
:104BF800782BE6FE08E64E6006E6161870011612D7
:104C0800587CE529B4010C0528E528D39401400314
:104C1800752902E522D394005006E5299402401430
:104C2800052AE52AD39414400E752A0075220075CA
:104C380029008003752A00D007D006D005D004D0FB
:104C480003D002D001D000D0D0D082D083D0F0D011
:104C5800E032908FF11212CFE4908FF9F0908FF735
:104C6800F0A3F0908FF7E0FEA3E0C39408EE648011
:104C780094805058908FF41212AF120F10FD7C00E0
:104C8800908FF7E0A3E0FF7E007401A80708800575
:104C9800C333CE33CED8F9FFEE5CFEEF5D4E602015
:104CA800908FF9E0FF908FF7E0A3E0FEC374079EB2
:104CB800FEF87401088002C333D8FC4F908FF9F0D6
:104CC800908FF7E475F0011210498097908FF9E002
:104CD800FF908FF11212AFEF120F782290917DE0C2
:104CE800FEA3E024A2FFEE34FEFE7C007D05121038
:104CF8001390904BEEF0A3EFF090904BE0FEA3E002
:104D0800D39400EE648094805007E490904BF0A315
:104D1800F0909057E0FEA3E0FF90904BE0FCA3E0FA
:104D2800D39FEC9E4010909057E0A3E090904DEEFA
:104D3800F0A3EFF0800E90904BE0FEA3E0FFA3EE0F
:104D4800F0A3EFF07B017A90794D908F09E4F0A3FE
:104D580004F07F007E20123B2112549F124EE7126E
:104D680053CF22E4F508F508E508C394045074E528
:104D78000875F007A4244FF582E43491F583E0FE2A
:104D8800A3E0FFE50875F007A42451F582E4349107
:104D9800F583E0FCA3E0C39FEC9E4043E50875F073
:104DA80007A4244FF582E43491F583E0FEA3E0D311
:104DB8009400EE94004028E50875F007A42453F504
:104DC80082E43491F5831212AF1213B4E50875F03A
:104DD80007A42451F582E43491F583E4F0A3F005A7
:104DE80008808522908EE2EEF0A3EFF0A3ECF0A30A
:104DF800EDF0908EE2E0FEA3E08EF01213874E22D3
:104E080011004E4611144E2E11164E3A12024E52F1
:104E180013004E5E130200004E69908EE4E0FEA37C
:104E2800E0FF123F7622908EE4E0FEA3E0FF121D21
:104E38006322908EE4E0FEA3E0FF12253722908ED5
:104E4800E4E0FEA3E0FF1246E822908EE4E0FEA331
:104E5800E0FF12310222908EE4E0FEA3E0FF120888
:104E68000522E4908ED9F0A3F0908ED9E0FEA3E05D
:104E7800C3940AEE9400502F908ED9E0A3E0FF7CF3
:104E8800007D0F120FAC74B52FF974903EFA7B01B8
:104E9800908ED9E0FCA3E0FD122D64908ED9E475C4
:104EA800F00112104980C2908EDBE4F0A304F0FBFD
:104EB8007A8E79DB908F09E4F0A304F07F507E119D
:104EC800123B21E4908EDBF0A3F07B017A8E79DB34
:104ED800908F09F0A304F07F527E11123B2122E447
:104EE800908ED9F0908802E01213614F20024F0390
:104EF800044F5B104F612000004F61124F64EFB404
:104F080001089088027402F0804F908D93E07049F8
:104F18009088027410F08041908800E0FFA3E06F51
:104F28006037E07F00FEEF2400F974803EFA7B01D1
:104F3800123E6F908ED9E9F0908801E004F0540792
:104F4800F0E4908820F0A3F090881FF09088020485
:104F5800F080069088027420F07F0022E4908FDAB7
:104F6800F07B017A8E79DAC003C002C0011B7A0097
:104F78007918908FDE1212CFD001D002D0031250D0
:104F88004FEF64017042781AF608F67818E6FE08C2
:104F9800E6FF08E6FC08E6C39FEC9E503018E6FEE4
:104FA80008E624DAF582748E3EF583E008F6E6FF1B
:104FB8007BFF7A5479E21222C2908FDAEFF0781BE5
:104FC80006E61870010680C3E4908FDAF0908FDA55
:104FD800E0FF22908FFBE0FEA3E0D39400EE940064
:104FE800400A908FFB74FFF5F0121049908FFBE494
:104FF800F0A37432F0909051E0FCA3E0FD7F017EB5
:1050080000125756909053E0FCA3E0FD7F017E000C
:10501800124262909055E0FCA3E0FD7F017E0012F1
:10502800434D90904FE0FCA3E0FD7F017E001257B6
:10503800837B017A907973908F09E4F0A304F07F61
:10504800587E20123B2122908FDB1212CF908D9731
:10505800E06401705A908D92E0704E781EF6908D43
:1050680098E0FF781EE6C39F5021E624D9F582E434
:10507800348DF583E0FF908FDB1212AFE6F5827571
:105088008300EF120F8A781E0680D3908D98E0FF78
:10509800908FDE1212AFE48FF0121125E4908D97F5
:1050A800F0A3F0781D7601800A781D76028004E46A
:1050B800781DF6781DE6FF22908EE8EEF0A3EFF05B
:1050C8007B017A8E79EA908F02E4F0A37402F07F74
:1050D800807E00124171908EEA745AF0A3E4F09039
:1050E8008EE8E0FEA3E064014E7014908EECE0FEC2
:1050F800A3E04408FF908EECEEF0A3EFF08012904E
:105108008EECE0FEA3E054F7FF908EECEEF0A3EFF8
:10511800F07B017A8E79EA908F09E4F0A37402F0AB
:105128007F807E00123B2122E4F509F509E509C3D9
:1051380094045062E50975F007A4244FF582E4341D
:1051480091F583E0FEA3E0FFE50975F007A424517B
:10515800F582E43491F583E0FCA3E0C39FEC9E5014
:1051680031E50975F007A4244FF582E43491F583FD
:10517800E0FEA3E0D39400EE94004016E50975F034
:1051880007A42451F582E43491F583E475F0011203
:1051980010490509809722909029E0FEA3E0D39456
:1051A80014EE94004008909029E4F0A304F07B01E9
:1051B8007A907967908EEDE4F0A37406F0E4FFFE30
:1051C8001214167B017A90796778577C907D017E5E
:1051D800007F04120EEA7B017A907967785B7C90F5
:1051E8007D017E007F0C120EEA7B017A907929906E
:1051F8008F09E4F0A304F07F0A7E20123B2122905D
:10520800914FE4F0A304F0A3E4F0A304F07BFF7A49
:105218004C79E4A31212CF909156E4F0A37432F0C3
:10522800A3E4F0A37408F07A007926A31212CF90B1
:10523800915DE4F0A3740AF0A3E4F0A37450F07A4B
:105248001879CDA31212CF909164E4F0A374FAF008
:10525800A37401F0A3742CF07A37795EA31212CFED
:1052680022908EEBEEF0A3EFF0A31212CF909029CC
:10527800E0FEA3E0C4F8540FC868FFEEC454F04839
:10528800FE908EEBE0FCA3E02FFFEE3C908EF2F058
:10529800A3EFF0908EF2E0FEA3E0FFE4FCFDC00671
:1052A800C007908EED1212AF908EF0E0FEA3E0FFE3
:1052B800908EFBEEF0A3EFF0D007D0061247C12284
:1052C800908EE2EEF0A3EFF0A3ECF0A3EDF0908E59
:1052D800E2E0FEA3E08EF0121387530E0FFF52F6A2
:1052E800111253021200531A120100005325908E16
:1052F800E4E0FEA3E0FF12010022908EE4E0FEA3AA
:10530800E0FF1255A022908EE4E0FEA3E0FF1256C3
:10531800C422908EE4E0FEA3E0FF12541622C0E0FF
:10532800C083C082C0D075D010309911C299908DB9
:1053380094E4F0908D98F0908D9374C8F030983183
:10534800AF99750A008F0BC298908D98E024D9F513
:1053580082E4348DF583EFF0908D977401F0A3E02B
:1053680004F0E0B40005E4B40101F0908D927403F8
:10537800F0D0D0D082D083D0E032908EFDEEF0A372
:10538800EFF0E4A3F0A3F0908EFDE0FEA3E0FFA30E
:10539800E0FCA3E0C39FEC9E502CE4A3F0A3F090A4
:1053A8008F01E0FEA3E0C394B8EE940B500C908FED
:1053B80001E475F00112104980E5908EFFE475F064
:1053C8000112104980C12290916BE0FEA3E04E705B
:1053D80009909081F0A304F08007E4909081F0A3F5
:1053E800F07B017A907981908F09E4F0A304F07F33
:1053F800307E25123B217B017A90793D908F09E41C
:10540800F0A304F0FF7E25123B21124FDB22908E81
:10541800E6EEF0A3EFF0908EE6E0FEA3E0FF9090BA
:1054280025EEF0A3EFF0909025E0FEA3E0FFC37413
:10543800019FFFE49EFE1250C07B017A907925906F
:105448008EFBE4F0A37402F07F037E007D007C00F5
:105458001247C122908ED9EFF0A3ECF0A3EDF090A3
:105468008ED9E0FF90881CE02404F582E43488F5A6
:1054780083EFF0908EDAE0FEA3E0FF90881CE075E1
:10548800F00290880C1212A3EEF0A3EFF090881CA3
:10549800E004F05407F02230003FC200E4908ED9B7
:1054A800F0A3F0908ED9E0FEA3E0C3940AEE940036
:1054B8005027908ED9E0A3E0FF7C007D0F120FAC3F
:1054C80074B52FF974903EFA7B01122033908ED96F
:1054D800E475F00112104980CA22908FDB1212CFB6
:1054E800908FDEEDF0E0FF7E00C006C007908FDBF6
:1054F8001212AFC001908800E07F00FEEF2400F98F
:1055080074803EA801FC7D01D001D007D006120EA0
:10551800EA908800E004F05407F022C0E0C083C09D
:1055280082C0D075D0105396FEE529B40323752A9E
:1055380000E523C3952540087529007522008011D0
:10554800AF23052374982FF582E4348CF583E0F5B6
:105558009ED0D0D082D083D0E032908F681212CF04
:10556800908F6BECF0A3EDF0E4781BF6781BE6FF68
:10557800908F6BE0FCA3E0FDC3EF9DE49C50189076
:105588008F681212AFE6F582758300120F29FF1299
:10559800584A781B0680D522908EE6EEF0A3EFF0ED
:1055A800908EE6E0FEA3E0FF909023EEF0A3EFF0EC
:1055B800909023E0FEA3E0FF124B317B017A9079B3
:1055C80023908EFBE4F0A37402F0FF7E007D007C44
:1055D800001247C1227E007F0C7D007B017A907902
:1055E800871213BA7B017A907987908F09E4F0A328
:1055F8007406F07F057E25123B217B017A9079871E
:10560800908F09E4F0A37406F07F0B7E25123B21EE
:1056180022908EE2EEF0A3EFF0A3ECF0A3EDF07B86
:10562800017A90791FA31212CFE4908EE4F0A3F0D0
:10563800A31212AF90001E1210A0640145F0600A78
:10564800908EE2E0FEA3E0FF800022908EE2EEF072
:10565800A3EFF0A3ECF0A3EDF07B017A90791FA300
:105668001212CFE4908EE4F0A3F0A31212AF9000D0
:105678001E1210A0640145F0600A908EE2E0FEA3BD
:10568800E0FF800022908EF1EEF0A3EFF0A3745AB1
:10569800F0A37401F0908EF1E0FEA3E0FF908EF588
:1056A800EEF0A3EFF07B017A8E79F3908F09E4F0A6
:1056B800A37402F07F847E00123B2122908EE6EED6
:1056C800F0A3EFF0908EE6E0FEA3E0FF909021EECD
:1056D800F0A3EFF07B017A907921908EFBE4F0A3A0
:1056E8007402F07F017E007D007C001247C1229089
:1056F8008FDF1212CF908FE2EDF0E4A3F0A3F090C9
:105708008FDF1212AF908FE2E0FD7C0012452090EF
:105718008FE3EEF0A3EFF0908FE3E0FEA3E0FF222B
:10572800E47B107A0EF9F890903712127F1211BAB2
:1057380090903BEEF0A3EFF07B017A90793B908F4D
:1057480009E4F0A304F07F627E20123B2122908EB0
:10575800D9EEF0A3EFF0A3ECF0A3EDF0908ED9E032
:10576800A3E030E0157B017A8E79DB908F09E4F0B5
:10577800A304F07F027E20123B2122908ED9EEF006
:10578800A3EFF0A3ECF0A3EDF0908ED9E0A3E03006
:10579800E0147B017A8E79DB908F09E4F0A304F0A2
:1057A800FF7E20123B212243C94043B71075985011
:1057B80075D88053877F75BA0375AAE443A8107E0D
:1057C800017F477D007B017A8D79921213BA2212EC
:1057D800586F7B017A91796B123C3E1257FD122962
:1057E8008C124E6A125888D2AF125207124D6B12A1
:1057F80049E080F8227E087F227D007B017A80794B
:10580800001213BA90881E7403F09088027401F095
:10581800227B017A90791F908EFAE4F0A37408F045
:105828007F007E007D007C001248792275C870E4F4
:10583800F5CDF5CC75CBBC75CACD43A820D2C8D25E
:10584800AF22908F6DEFF0908D94E070FA04F09095
:105858008F6DE0F59922759680759780E4F5D97576
:10586800E7E0D2BAD2BB2212002E1257AF12585E0E
:1058780012583422781F06E6B41E04E4F6D2002239
:10588800752101E4F529F522F52A220000C0C1C1DD
:10589800810140C30103C00280C241C60106C0079E
:1058A80080C7410500C5C1C4810440CC010CC00DAE
:1058B80080CD410F00CFC1CE810E400A00CAC1CBB6
:1058C800810B40C90109C00880C841D80118C01916
:1058D80080D9411B00DBC1DA811A401E00DEC1DF1E
:1058E800811F40DD011DC01C80DC411400D4C1D5DE
:1058F800811540D70117C01680D641D20112C013B6
:1059080080D3411100D1C1D0811040F00130C031A5
:1059180080F1413300F3C1F28132403600F6C1F71D
:10592800813740F50135C03480F4413C00FCC1FDAD
:10593800813D40FF013FC03E80FE41FA013AC03B35
:1059480080FB413900F9C1F88138402800E8C1E9F5
:10595800812940EB012BC02A80EA41EE012EC02F9D
:1059680080EF412D00EDC1EC812C40E40124C025DD
:1059780080E5412700E7C1E68126402200E2C1E335
:10598800812340E10121C02080E041A00160C06185
:1059980080A1416300A3C1A28162406600A6C1A79D
:1059A800816740A50165C06480A4416C00ACC1ADAD
:1059B800816D40AF016FC06E80AE41AA016AC06BB5
:1059C80080AB416900A9C1A88168407800B8C1B915
:1059D800817940BB017BC07A80BA41BE017EC07F1D
:1059E80080BF417D00BDC1BC817C40B40174C075DD
:1059F80080B5417700B7C1B68176407200B2C1B3B5
:105A0800817340B10171C07080B041500090C19164
:105A1800815140930153C052809241960156C0571C
:105A2800809741550095C1948154409C015CC05DAC
:105A3800809D415F009FC19E815E405A009AC19B34
:105A4800815B40990159C058809841880148C049F4
:105A58008089414B008BC18A814A404E008EC18F9C
:105A6800814F408D014DC04C808C41440084C185DC
:105A7800814540870147C046808641820142C04334
:105A8800808341410081C1808140400000000000C6
:105A980000000000000000000000000000000000FE
:105AA80000000000000000000000000000000000EE
:105AB80000000000000000000000000000000000DE
:105AC80000000000000000000000000000000000CE
:105AD80000000000000000000000000000000000BE
