:1000000002480F908ED9EEF0A3EFF07B017A8E7943
:10001000D9908F09E4F0A304F07FA07E001239424A
:0100200022BD
:0700230002520412005E22EC
:10002B00024AA4E4F58E75C870F593759401759525
:10003B0002F5C9F5F875F901F5A8F5B8F59AF5A922
:06004B00F5B953C9FD22C6
:0300530002540153
:10005B000230ED908802E064207051A3E070187FAD
:10006B0001FE120003E4908820F0A3F090881FF0AB
:10007B0090880204F0802990881DE014F0E0FF12B4
:10008B003D979088027404F090881DE02404F5825B
:10009B00E43488F583E4F090881DE004F05407F015
:1000AB00908803E0D394004003E014F0908802E0C2
:1000BB006401703390881CE0FFA3E0B50707E4FDF3
:1000CB00FCFF12533A9088027408F090881DE0FFF1
:1000DB00123D979088037403F090880204F0908887
:0800EB001DE004F05407F022AF
:1000F800FFFF4457494E5435908EE6EEF0A3EFF0DB
:1001080090903DE0FEA3E04E601DE4908EE8F0A3E1
:10011800F07B017A8E79E8908F09F0A37402F07F62
:10012800127E1112394222909041E0FEA3E0640150
:100138004E60030201F4909027E0FEA3E090901532
:1001480075F0221212A3EE75F022A42583F583E040
:10015800FEA3E0FF90905BE0FCA3E0D39FEC9E4001
:1001680028909027E0FEA3E090901575F0221212D7
:10017800A3EE75F022A42583F583E0FEA3E0FF90AB
:10018800905BEEF0A3EFF08051909027E0FEA3E0A3
:1001980090901375F0221212A3EE75F022A4258315
:1001A800F583E0FEA3E0FF90905BE0FCA3E0C39F33
:1001B800EC9E5026909027E0FEA3E090901375F0F7
:1001C800221212A3EE75F022A42583F583E0FEA384
:1001D800E0FF90905BEEF0A3EFF090905BE0FCA363
:1001E800E0FD7F107E00123F7F0205CA909041E03B
:1001F800FEA3E064024E60030202B9909027E0FE7D
:10020800A3E090901575F0221212A3EE75F022A4C7
:100218002583F583E0FEA3E0FF90905FE0FCA3E078
:10022800D39FEC9E4028909027E0FEA3E090901585
:1002380075F0221212A3EE75F022A42583F583E04F
:10024800FEA3E0FF90905FEEF0A3EFF08051909056
:1002580027E0FEA3E090901375F0221212A3EE752A
:10026800F022A42583F583E0FEA3E0FF90905FE0F1
:10027800FCA3E0C39FEC9E5026909027E0FEA3E0ED
:1002880090901375F0221212A3EE75F022A4258324
:10029800F583E0FEA3E0FF90905FEEF0A3EFF0900F
:1002A800905FE0FCA3E0FD7F207E00123F7F020507
:1002B800CA909041E0FEA3E064034E600302037E0F
:1002C800909027E0FEA3E090901575F0221212A3FB
:1002D800EE75F022A42583F583E0FEA3E0FF90905D
:1002E80063E0FCA3E0D39FEC9E4028909027E0FEBB
:1002F800A3E090901575F0221212A3EE75F022A4D7
:100308002583F583E0FEA3E0FF909063EEF0A3EF72
:10031800F08051909027E0FEA3E090901375F022B2
:100328001212A3EE75F022A42583F583E0FEA3E064
:10033800FF909063E0FCA3E0C39FEC9E5026909052
:1003480027E0FEA3E090901375F0221212A3EE7539
:10035800F022A42583F583E0FEA3E0FF909063EEEE
:10036800F0A3EFF0909063E0FCA3E0FD7F407E00F7
:10037800123F7F0205CA909041E0FEA3E064044E5C
:100388006003020443909027E0FEA3E090901B7561
:10039800F0221212A3EE75F022A42583F583E0FE65
:1003A800A3E0FF90905DE0FCA3E0D39FEC9E402883
:1003B800909027E0FEA3E090901B75F0221212A304
:1003C800EE75F022A42583F583E0FEA3E0FF90906C
:1003D8005DEEF0A3EFF08051909027E0FEA3E0904F
:1003E800901975F0221212A3EE75F022A42583F558
:1003F80083E0FEA3E0FF90905DE0FCA3E0C39FECE8
:100408009E5026909027E0FEA3E090901975F02268
:100418001212A3EE75F022A42583F583E0FEA3E073
:10042800FF90905DEEF0A3EFF090905DE0FCA3E00C
:10043800FD7F107E0012406A0205CA909041E0FEDE
:10044800A3E064054E6003020508909027E0FEA330
:10045800E090901B75F0221212A3EE75F022A425ED
:1004680083F583E0FEA3E0FF909061E0FCA3E0D376
:100478009FEC9E4028909027E0FEA3E090901B758B
:10048800F0221212A3EE75F022A42583F583E0FE74
:10049800A3E0FF909061EEF0A3EFF08051909027D9
:1004A800E0FEA3E090901975F0221212A3EE75F009
:1004B80022A42583F583E0FEA3E0FF909061E0FC91
:1004C800A3E0C39FEC9E5026909027E0FEA3E09007
:1004D800901975F0221212A3EE75F022A42583F567
:1004E80083E0FEA3E0FF909061EEF0A3EFF0909020
:1004F80061E0FCA3E0FD7F207E0012406A0205CA8D
:10050800909041E0FEA3E064064E60030205CA90A5
:100518009027E0FEA3E090901B75F0221212A3EE44
:1005280075F022A42583F583E0FEA3E0FF90906593
:10053800E0FCA3E0D39FEC9E4028909027E0FEA328
:10054800E090901B75F0221212A3EE75F022A425FC
:1005580083F583E0FEA3E0FF909065EEF0A3EFF053
:100568008051909027E0FEA3E090901975F0221238
:1005780012A3EE75F022A42583F583E0FEA3E0FF25
:10058800909065E0FCA3E0C39FEC9E5026909027D6
:10059800E0FEA3E090901975F0221212A3EE75F018
:1005A80022A42583F583E0FEA3E0FF909065EEF09A
:1005B800A3EFF0909065E0FCA3E0FD7F407E001281
:1005C800406A908EE6E0FEA3E08EF0121387060ADA
:1005D8000001060A0002060A0003060A0004060AC9
:1005E8000005060A00060694040006F00800073312
:1005F8000C0006C2100006FB1400072B1C000000AC
:1006080007F47E007F0C7D007B017A9079871213B6
:10061800BA908EE6E0A3E014908EEAF0E01213613F
:10062800063E00064801065202065C0306660406FA
:10063800700500000678909087E4F0A304F08030FD
:10064800909089E4F0A304F0802690908BE4F0A3C6
:1006580004F0801C90908DE4F0A304F08012909038
:100668008FE4F0A304F08008909091E4F0A304F0E4
:10067800908EE6E0FEA3E0FF124155908EE6E0FE84
:10068800A3E0FF909041EEF0A3EFF022909029E0D4
:10069800FEA3E04E7007909029F0A304F07B017A46
:1006A800907929908F09E4F0A304F07F4E7E201200
:1006B80039427F087E0012382222E4908EE8F0A3A7
:1006C800F07B017A8E79E8908F09F0A37402F07FAD
:1006D800127E11123942E4909041F0A3F01254BBFB
:1006E8007F077E00123822221254BB7F097E001237
:1006F8003822227B017A90795B78677C907D017E35
:10070800007F0C120EEA7B017A907967908EF0E4F4
:10071800F0A37406F0E4FFFE1251477F087E001232
:100728003822227F087E0012382222E4909041F07D
:10073800A3F01254BB7B017A907929908EFBE4F0E8
:10074800A37402F07F057E007D007C0012469F7B2B
:10075800017A907967785B7C907D017E007F0C122E
:100768000EEA7B017A90796778577C907D017E004C
:100778007F04120EEA90905BE0FCA3E0FD7F107E00
:1007880000123F7F90905FE0FCA3E0FD7F207E0099
:10079800123F7F909063E0FCA3E0FD7F407E001253
:1007A8003F7F90905DE0FCA3E0FD7F107E0012404B
:1007B8006A909061E0FCA3E0FD7F207E0012406A11
:1007C800909065E0FCA3E0FD7F407E0012406AE463
:1007D800908EE8F0A3F07B017A8E79E8908F09F08B
:1007E800A37402F07F127E1112394222908EE6E045
:1007F800FEA3E0FF909041EEF0A3EFF022908EE68A
:10080800EEF0A3EFF0909049E0FEA3E08EF0121313
:1008180087082D000109A800020B2200030C9E0086
:100828000400000E19909045E0FEA3E0FF908EE8CA
:10083800EEF0A3EFF0908EE6E0FEA3E0C3940BEE9B
:1008480094005068908EE6E0A3E0640A4E7006902B
:100858008EE6F0A3F0908EE8E0FEA3E0FF7C007D3A
:1008680064120FBE908EE8ECF0A3EDF0908EE8E0F5
:10087800FEA3E0FF7C007D0A120FAC908EE8EEF03C
:10088800A3EFF0908EE6E0FEA3E0FFA3EE8FF01258
:100898001049908EE8E0FEA3E0D39463EE94004004
:1008A8002C908EE8E4F0A37463F08021908EE6E04B
:1008B800FEA3E0640B4E7015A3E0FEA3E0FF7C00EE
:1008C8007D0A120FBE908EE8EEF0A3EFF07B017A5E
:1008D8008E79E8908F09E4F0A304F07F617E2012FE
:1008E8003942908EE8E0FEA3E0FF909045EEF0A339
:1008F800EFF0908EE6E0FEA3E0640C4E6003020E7B
:1009080019909045E0FEA3E0FF90902FEEF0A3EF42
:10091800F090902FE0FEA3E0C39401EE94005008FD
:1009280090902FE4F0A304F090902FE0FEA3E0D382
:100938009463EE9400400990902FE4F0A37463F060
:100948007B017A90792F908F09E4F0A37402F07FED
:10095800507E201239427B017A90792F908EFBE4E9
:10096800F0A37402F07F0A7E007D007C0012469F8F
:1009780074A5908EEAF0A3F07B017A8E79EA908EC6
:10098800FBE4F0A37402F07F0E7E007D007C001271
:10099800469FE4909049F0A3F07F04FE123822228B
:1009A800909045E0FEA3E0FF908EE8EEF0A3EFF014
:1009B800908EE6E0FEA3E0C3940BEE94005068909E
:1009C8008EE6E0A3E0640A4E7006908EE6F0A3F08F
:1009D800908EE8E0FEA3E0FF7C007D64120FBE90DD
:1009E8008EE8ECF0A3EDF0908EE8E0FEA3E0FF7C4B
:1009F800007D0A120FAC908EE8EEF0A3EFF0908E17
:100A0800E6E0FEA3E0FFA3EE8FF0121049908EE817
:100A1800E0FEA3E0D39463EE9400402C908EE8E4CB
:100A2800F0A37463F08021908EE6E0FEA3E0640BEF
:100A38004E7015A3E0FEA3E0FF7C007D0A120FBEF6
:100A4800908EE8EEF0A3EFF07B017A8E79E8908F34
:100A580009E4F0A304F07F617E20123942908EE809
:100A6800E0FEA3E0FF909045EEF0A3EFF0908EE655
:100A7800E0FEA3E0640C4E6003020E19909045E07E
:100A8800FEA3E0FF909031EEF0A3EFF0909031E0FC
:100A9800FEA3E0C39401EE94005008909031E4F076
:100AA800A304F0909031E0FEA3E0D39463EE9400A9
:100AB8004009909031E4F0A37463F07B017A907957
:100AC80031908F09E4F0A304F07F517E201239425F
:100AD8007B017A907931908EFBE4F0A37402F07F69
:100AE8000B7E007D007C0012469F74A5908EEAF074
:100AF800A3F07B017A8E79EA908EFBE4F0A374026E
:100B0800F07F0E7E007D007C0012469FE4909049A5
:100B1800F0A3F07F04FE12382222909045E0FEA355
:100B2800E0FF908EE8EEF0A3EFF0908EE6E0FEA3F3
:100B3800E0C3940BEE94005069908EE6E0A3E06465
:100B48000A4E7006908EE6F0A3F0908EE8E0FEA3C1
:100B5800E0FF7C037DE8120FBE908EE8ECF0A3ED79
:100B6800F0908EE8E0FEA3E0FF7C007D0A120FAC57
:100B7800908EE8EEF0A3EFF0908EE6E0FEA3E0FFA3
:100B8800A3EE8FF0121049908EE8E0FEA3E0D39414
:100B980090EE9401402D908EE87401F0A37490F0CB
:100BA8008021908EE6E0FEA3E0640B4E7015A3E072
:100BB800FEA3E0FF7C007D0A120FBE908EE8EEF0E7
:100BC800A3EFF07B017A8E79E8908F09E4F0A30413
:100BD800F07F617E20123942908EE8E0FEA3E0FFAC
:100BE800909045EEF0A3EFF0908EE6E0FEA3E0646F
:100BF8000C4E6003020E19909045E0FEA3E0FF90B2
:100C08009033EEF0A3EFF0909033E0FEA3E0C394AE
:100C180001EE94005008909033E4F0A304F0909013
:100C280033E0FEA3E0D39490EE9401400A90903311
:100C38007401F0A37490F07B017A907933908F0956
:100C4800E4F0A304F07F527E201239427B017A90AF
:100C58007933908EFBE4F0A37402F07F0C7E007D64
:100C6800007C0012469F74A5908EEAF0A3F07B01E9
:100C78007A8E79EA908EFBE4F0A37402F07F0E7E00
:100C8800007D007C0012469FE4909049F0A3F07F1D
:100C980004FE12382222909045E0FEA3E0FF908ED9
:100CA800E8EEF0A3EFF0908EE6E0FEA3E0C3940B2D
:100CB800EE94005069908EE6E0A3E0640A4E700658
:100CC800908EE6F0A3F0908EE8E0FEA3E0FF7C03B0
:100CD8007DE8120FBE908EE8ECF0A3EDF0908EE860
:100CE800E0FEA3E0FF7C007D0A120FAC908EE8EED8
:100CF800F0A3EFF0908EE6E0FEA3E0FFA3EE8FF006
:100D0800121049908EE8E0FEA3E0D39490EE94018F
:100D1800402D908EE87401F0A37490F08021908E9D
:100D2800E6E0FEA3E0640B4E7015A3E0FEA3E0FF2F
:100D38007C007D0A120FBE908EE8EEF0A3EFF07BE8
:100D4800017A8E79E8908F09E4F0A304F07F617E40
:100D580020123942908EE8E0FEA3E0FF909045EE25
:100D6800F0A3EFF0908EE6E0FEA3E0640C4E600383
:100D7800020E19909045E0FEA3E0FF909035EEF04A
:100D8800A3EFF0909035E0FEA3E0C39401EE940049
:100D98005008909035E4F0A304F0909035E0FEA35D
:100DA800E0D39490EE9401400A9090357401F0A33A
:100DB8007490F07B017A907935908F09E4F0A30460
:100DC800F07F537E201239427B017A907935908EDC
:100DD800FBE4F0A37402F07F0D7E007D007C00121E
:100DE800469F74A5908EEAF0A3F07B017A8E79EA8B
:100DF800908EFBE4F0A37402F07F0E7E007D007CF1
:100E08000012469FE4909049F0A3F07F04FE123848
:100E18002222E709F608DFFA8046E709F208DFFA36
:100E2800803E88828C83E709F0A3DFFA8032E309E9
:100E3800F608DFFA8078E309F208DFFA8070888222
:100E48008C83E309F0A3DFFA806489828A83E0A3B4
:100E5800F608DFFA805889828A83E0A3F208DFFA6D
:100E6800804C80D280FA80C680D4806980F280333A
:100E7800801080A680EA809A80A880DA80E280CA02
:100E8800803389828A83ECFAE493A3C8C582C8CCEC
:100E9800C583CCF0A3C8C582C8CCC583CCDFE9DE46
:100EA800E7800D89828A83E493A3F608DFF9ECFAD8
:100EB800A9F0EDFB2289828A83ECFAE0A3C8C582F7
:100EC800C8CCC583CCF0A3C8C582C8CCC583CCDF49
:100ED800EADEE880DB89828A83E493A3F208DFF9FB
:100EE80080CC88F0EF60010E4E60C388F0ED2402DC
:100EF800B4040050B9F582EB2402B4040050AF23C7
:100F080023458223900E6A73BB010689828A83E097
:100F1800225002E722BBFE02E32289828A83E493FD
:100F280022BB010CE58229F582E5833AF583E022AC
:100F38005006E92582F8E622BBFE06E92582F8E29A
:100F480022E58229F582E5833AF583E49322BB0101
:100F58000989828A83F8E028F022500327F722BB08
:100F6800FE05F8E328F3228A838982F8E49328228D
:100F7800BB010689828A83F0225002F722BBFE0158
:100F8800F322F8BB010DE58229F582E5833AF58362
:100F9800E8F0225006E92582C8F622BBFE05E925BD
:100FA80082C8F222EF8DF0A4A8F0CF8CF0A428CE4E
:100FB8008DF0A42EFE22BC000BBE0029EF8DF0841C
:100FC800FFADF022E4CCF875F008EF2FFFEE33FE0A
:100FD800EC33FCEE9DEC984005FCEE9DFE0FD5F041
:100FE800E9E4CEFD22EDF8F5F0EE8420D21CFEAD4A
:100FF800F075F008EF2FFFED33FD4007985006D548
:10100800F0F222C398FD0FD5F0EA22C2D5EC30E702
:1010180009B2D5E4C39DFDE49CFCEE30E715B2D5DA
:10102800E4C39FFFE49EFE120FBEC3E49DFDE49C53
:10103800FC8003120FBE30D507C3E49FFFE49EFE79
:1010480022C5F0F8A3E028F0C5F0F8E58215827013
:10105800021583E038F022A3F8E0C5F025F0F0E5AA
:1010680082158270021583E0C838F0E822BB010AB5
:1010780089828A83E0F5F0A3E022500687F009E729
:101088001922BBFE07E3F5F009E3192289828A8356
:10109800E493F5F074019322BB0110E58229F582EF
:1010A800E5833AF583E0F5F0A3E0225009E92582CB
:1010B800F886F008E622BBFE0AE92582F8E2F5F098
:1010C80008E222E5832AF583E993F5F0A3E9932260
:1010D800BB010DC58229C582C5833AC58302104963
:1010E8005011C58229F808E5F026F618F5F0E582D2
:1010F80036F622BBFE11C58229F808E225F0F5F084
:10110800F218E23582F222F8E58229F582E5832A8F
:10111800F58374019325F0F5F0E4933822BB010AB6
:1011280089828A83F0E5F0A3F0225006F709A7F038
:101138001922BBFE06F3E5F009F31922F8BB0111E9
:10114800E58229F582E5833AF583E8F0E5F0A3F036
:10115800225009E92582C8F608A6F022BBFE09E953
:101168002582C8F2E5F008F222EF2BFFEE3AFEEDF9
:1011780039FDEC38FC2275F008758200EF2FFFEE80
:1011880033FECD33CDCC33CCC58233C5829BED9AAB
:10119800EC99E58298400CF582EE9BFEED9AFDEC09
:1011A80099FC0FD5F0D6E4CEFBE4CDFAE4CCF9A84F
:1011B8008222B800C1B90059BA002DEC8BF084CF57
:1011C800CECDFCE5F0CBF97818EF2FFFEE33FEED2E
:1011D80033FDEC33FCEB33FB10D703994004EB9958
:1011E800FB0FD8E5E4F9FA227818EF2FFFEE33FE6B
:1011F800ED33FDEC33FCC933C910D7059BE99A40A0
:1012080007EC9BFCE99AF90FD8E0E4C9FAE4CCFBB7
:101218002275F010EF2FFFEE33FEED33FDCC33CC0B
:10122800C833C810D7079BEC9AE899400AED9BFD94
:10123800EC9AFCE899F80FD5F0DAE4CDFBE4CCFAA7
:10124800E4C8F922EF4BFFEE4AFEED49FDEC48FCFD
:1012580022E8600FECC313FCED13FDEE13FEEF1351
:10126800FFD8F122E8600FEFC333FFEE33FEED3312
:10127800FDEC33FCD8F122E0FCA3E0FDA3E0FEA3E3
:10128800E0FF22E0F8A3E0F9A3E0FAA3E0FB22ECF8
:10129800F0A3EDF0A3EEF0A3EFF022A42582F582EF
:1012A800E5F03583F58322E0FBA3E0FAA3E0F92219
:1012B800F8E0FBA3A3E0F925F0F0E58215827002BF
:1012C8001583E0FA38F022EBF0A3EAF0A3E9F02264
:1012D800BB010DE58229F582E5833AF5830212AF59
:1012E8005007E92582F80213E6BBFE07E92582F8D4
:1012F8000213F8E58229F582E5833AF58302140A98
:10130800BB0120E58229F582E5833AF583D0F0D048
:10131800E0F8D0E0F9D0E0FAD0E0FBE8C0E0C0F0B7
:101328000212CF5018E92582F8D083D082D0E0F994
:10133800D0E0FAD0E0FBC082C0830213EFBBFE18F6
:10134800E92582F8D083D082D0E0F9D0E0FAD0E065
:10135800FBC082C08302140122D083D082F8E493B8
:101368007012740193700DA3A393F8740193F5821E
:101378008883E4737402936860EFA3A3A380DFD02B
:1013880083D082F8E4937012740193700DA3A39331
:10139800F8740193F5828883E473740293B5F006B8
:1013A8007403936860E9A3A3A3A380D88A8389827E
:1013B800E473EF4E6012EF60010EEDBB010B898202
:1013C8008A83F0A3DFFCDEFA2289F05007F709DFF1
:1013D800FCA9F022BBFEFCF309DFFCA9F022E6FB26
:1013E80008E6FA08E6F922EBF608EAF608E9F62232
:1013F800E2FB08E2FA08E2F922EBF208EAF208E96D
:10140800F222E493FB740193FA740293F922908E0A
:10141800E8EEF0A3EFF0A31212CF909029E0FEA31C
:10142800E0C4F8540FC868FFEEC454F048FE908E2C
:10143800E8E0FCA3E02FFFEE3C908EEFF0A3EFF086
:10144800908EEFE0FEA3E0FFE4FCFDC006C007902D
:101458008EEA1212AF908EEDE0FEA3E0FF908EFAB6
:10146800EEF0A3EFF0D007D006124757E4908EF1C4
:10147800F0A3F0908EEDE0FEA3E0FF908EF1E0FC8B
:10148800A3E0C39FEC9E40030218CC908EF1E0FECF
:10149800A3E0FF908EE8E0FCA3E02FFFEC3E908EE7
:1014A800EFF0A3EFF0908EEFE0FEA3E08EF01213C2
:1014B8008714D5000016CD0001157D0002177500B0
:1014C8000316250004181D0005000018BF9090277A
:1014D800E0FEA3E090901575F0221212A3EE75F0CD
:1014E80022A42583F583E0FEA3E0FF909067E0FC4B
:1014F800A3E0D39FEC9E4026909027E0FEA3E090C7
:10150800901375F0221212A3EE75F022A42583F52C
:1015180083E0FEA3E0FF909067EEF0A3EFF09090D9
:1015280027E0FEA3E090901375F0221212A3EE7547
:10153800F022A42583F583E0FEA3E0FF909067E006
:10154800FCA3E0C39FEC9E40030218BF909027E0E5
:10155800FEA3E090901375F0221212A3EE75F0220C
:10156800A42583F583E0FEA3E0FF909067EEF0A347
:10157800EFF00218BF909027E0FEA3E09090157559
:10158800F0221212A3EE75F022A42583F583E0FE63
:10159800A3E0FF90906BE0FCA3E0D39FEC9E402675
:1015A800909027E0FEA3E090901375F0221212A30A
:1015B800EE75F022A42583F583E0FEA3E0FF90906A
:1015C8006BEEF0A3EFF0909027E0FEA3E09090136D
:1015D80075F0221212A3EE75F022A42583F583E09C
:1015E800FEA3E0FF90906BE0FCA3E0C39FEC9E405D
:1015F800030218BF909027E0FEA3E090901375F0C7
:10160800221212A3EE75F022A42583F583E0FEA32F
:10161800E0FF90906BEEF0A3EFF00218BF909027D8
:10162800E0FEA3E090901575F0221212A3EE75F07B
:1016380022A42583F583E0FEA3E0FF90906FE0FCF1
:10164800A3E0D39FEC9E4026909027E0FEA3E09075
:10165800901375F0221212A3EE75F022A42583F5DB
:1016680083E0FEA3E0FF90906FEEF0A3EFF0909080
:1016780027E0FEA3E090901375F0221212A3EE75F6
:10168800F022A42583F583E0FEA3E0FF90906FE0AD
:10169800FCA3E0C39FEC9E40030218BF909027E094
:1016A800FEA3E090901375F0221212A3EE75F022BB
:1016B800A42583F583E0FEA3E0FF90906FEEF0A3EE
:1016C800EFF00218BF909027E0FEA3E090901B7502
:1016D800F0221212A3EE75F022A42583F583E0FE12
:1016E800A3E0FF909069E0FCA3E0D39FEC9E402626
:1016F800909027E0FEA3E090901975F0221212A3B3
:10170800EE75F022A42583F583E0FEA3E0FF909018
:1017180069EEF0A3EFF0909027E0FEA3E090901917
:1017280075F0221212A3EE75F022A42583F583E04A
:10173800FEA3E0FF909069E0FCA3E0C39FEC9E400D
:10174800030218BF909027E0FEA3E090901975F06F
:10175800221212A3EE75F022A42583F583E0FEA3DE
:10176800E0FF909069EEF0A3EFF00218BF90902789
:10177800E0FEA3E090901B75F0221212A3EE75F024
:1017880022A42583F583E0FEA3E0FF90906DE0FCA2
:10179800A3E0D39FEC9E4026909027E0FEA3E09024
:1017A800901975F0221212A3EE75F022A42583F584
:1017B80083E0FEA3E0FF90906DEEF0A3EFF0909031
:1017C80027E0FEA3E090901975F0221212A3EE759F
:1017D800F022A42583F583E0FEA3E0FF90906DE05E
:1017E800FCA3E0C39FEC9E40030218BF909027E043
:1017F800FEA3E090901975F0221212A3EE75F02264
:10180800A42583F583E0FEA3E0FF90906DEEF0A39E
:10181800EFF00218BF909027E0FEA3E090901B75B0
:10182800F0221212A3EE75F022A42583F583E0FEC0
:10183800A3E0FF909071E0FCA3E0D39FEC9E4026CC
:10184800909027E0FEA3E090901975F0221212A361
:10185800EE75F022A42583F583E0FEA3E0FF9090C7
:1018680071EEF0A3EFF0909027E0FEA3E0909019BE
:1018780075F0221212A3EE75F022A42583F583E0F9
:10188800FEA3E0FF909071E0FCA3E0C39FEC9E50A4
:1018980026909027E0FEA3E090901975F02212128E
:1018A800A3EE75F022A42583F583E0FEA3E0FF9064
:1018B8009071EEF0A3EFF0908EF1E475F001121044
:1018C8004902147B22909043E0FEA3E08EF01213AD
:1018D80087190100001924000119A500021D110033
:1018E8000319BD00041A58000519E100061BC900B8
:1018F800091CA6000A00001D4D909043E4F0A304C3
:10190800F0FD7C007F0312533A7D017C007F0712B3
:10191800533A909085E4F0A37464F022909051E4D7
:10192800F0A304F0909057E0FEA3E0FF909053EEF0
:10193800F0A3EFF0909059E0FEA3E0FF909055EEF1
:10194800F0A3EFF0909059E0A3E090904FEEF0A351
:10195800EFF090903DE0FEA3E064014E7028909176
:1019680083E0FEA3E064014E700A909043F0A374F4
:1019780002F080127D017C007F0D12533A90904353
:10198800E4F0A37402F0909085E0FEA3E064014EB9
:101998006003021D4DFDFC7F0412533A229091838F
:1019A800E0FEA3E064014E6003021D4D909043F0F9
:1019B800A37404F022E4FDFC7F0412533A7D017CF9
:1019C800007F0112533A7D017C007F0912533A903F
:1019D8009043E4F0A37406F022909057E0FEA3E051
:1019E800FF90904BE0FCA3E0C39FEC9E404CE4FDCD
:1019F800FC7F0A12533A90906DE0FEA3E0FF9090AE
:101A080069E0FCA3E02FFFEC3EFE909071E0FCA3A0
:101A1800E02FFFEE3C909079F0A3EFF0909079E002
:101A2800FCA3E0FD7E277F10120FBEA3EEF0A3EF0C
:101A3800F0909043E4F0A37405F090903DE0FEA38D
:101A4800E04E6003021D4D909043F0A37409F0220C
:101A5800909051E0FEA3E064014E705C90904FE0DE
:101A6800FEA3E04E70527B017A90796B78577C9098
:101A78007D01FE7F04120EEA909051E4F0A37402F7
:101A8800F0909057E0FEA3E0FF909053EEF0A3EFA4
:101A9800F0909059E0FEA3E0FF909055EEF0A3EF90
:101AA800F0909059E0A3E090904FEEF0A3EFF09003
:101AB8009043E4F0A37404F0909051E0FEA3E06436
:101AC800024E705C90904FE0FEA3E04E70527B0196
:101AD8007A90796F78577C907D01FE7F04120EEA28
:101AE800909051E4F0A37403F0909057E0FEA3E0C7
:101AF800FF909053EEF0A3EFF0909059E0FEA3E032
:101B0800FF909055EEF0A3EFF0909059E0A3E0908D
:101B1800904FEEF0A3EFF0909043E4F0A37404F03C
:101B2800909051E0FEA3E064034E702B90904FE03C
:101B3800FEA3E04E702190903DF0A3F0909025E038
:101B4800FEA3E04E7011909083F0A37403F07D0122
:101B58007C007F0512533A90903DE0FEA3E04E7062
:101B680008909043F0A37409F0909057E0FEA3E02A
:101B7800D39403EE94005021909057E0A3E0FF9097
:101B8800904BE0FCA3E0C39FEC9E4003021D4D90E8
:101B98009043E4F0A37404F022909057E0FEA3E091
:101BA80024FEFFEE34FFFE90904BE0FCA3E0C39FC1
:101BB800EC9E4003021D4D909043E4F0A37404F0A2
:101BC80022E4909073F0A3F0909077F0A3F07B015B
:101BD8007A907973908F09F0A304F07F037E251221
:101BE8003942E490903FF0A3F090907DF0A3F090FC
:101BF8009077F0A3F07B017A907977908F09F0A322
:101C080004F07F027E251239427B017A9079677849
:101C1800577C907D017E007F04120EEAE4FDFC7F74
:101C28000212533AE4FDFC7F0A12533A7D017C000C
:101C38007F0312533AE490907FF0A3F090902FE046
:101C4800FCA3E0FD7E277F10120FBE90907BEEF084
:101C5800A3EFF090903712127FEFEEE490902DEE04
:101C6800F0A3EFF090903712127F7810121259EF0C
:101C7800EEE490902BEEF0A3EFF07B017A90792BB5
:101C8800908EFBE4F0A37402F07F067E007D007C5A
:101C98000012469F909043E4F0A3740AF0229090BB
:101CA8002FE0FEA3E0FF90907FE0FCA3E0C39FEC51
:101CB8009E402CE4FDFC7F0412533A7D027C007F99
:101CC8000D12533A909043E4F0A37403F090914DB1
:101CD800E0FEA3E0F44E706D7F07FE1238222290DA
:101CE800903DE0FEA3E064014E600AA3E0FEA3E09D
:101CF80064014E7050E490903DF0A3F0A3F0A3F07F
:101D080090914DF0A374FFF022909185E0FEA3E03E
:101D180064014E7007909043F0A304F090903DE06A
:101D2800FEA3E064014E600AA3E0FEA3E064014E56
:101D38007013E490903DF0A3F0A3F0A3F090914DC0
:101D4800F0A374FFF022908EE6EEF0A3EFF0E4909B
:101D58008EEAF0A3F0A3F0A3F0A3F0A3F0A3F09011
:101D68009041E0FEA3E08EF01213871D8F00011D45
:101D7800C900021E0300031E3D00041E7C00051E50
:101D8800BB000600001EF8908EEE7490F0A3745B02
:101D9800F0909027E0FEA3E090901575F0221212C3
:101DA800A3EE75F022A42583F583E0FEA3E0FF905F
:101DB8008EEAEEF0A3EFF0A3E4F0A37410F0021E95
:101DC800F8908EEE7490F0A3745FF0909027E0FE88
:101DD800A3E090901575F0221212A3EE75F022A4DC
:101DE8002583F583E0FEA3E0FF908EEAEEF0A3EFF3
:101DF800F0A3E4F0A37420F0021EF8908EEE749025
:101E0800F0A37463F0909027E0FEA3E0909015751E
:101E1800F0221212A3EE75F022A42583F583E0FECA
:101E2800A3E0FF908EEAEEF0A3EFF0A3E4F0A37432
:101E380040F0021EF8908EEE7490F0A3745DF0905E
:101E48009027E0FEA3E090901B75F0221212A3EEFB
:101E580075F022A42583F583E0FEA3E0FF908EEAC7
:101E6800EEF0A3EFF0A3E4F0A37410F0908EF074FA
:101E780001F0807C908EEE7490F0A37461F09090E5
:101E880027E0FEA3E090901B75F0221212A3EE75D6
:101E9800F022A42583F583E0FEA3E0FF908EEAEE0E
:101EA800F0A3EFF0A3E4F0A37420F0908EF0740197
:101EB800F0803D908EEE7490F0A37465F0909027BA
:101EC800E0FEA3E090901B75F0221212A3EE75F0CD
:101ED80022A42583F583E0FEA3E0FF908EEAEEF0CE
:101EE800A3EFF0A3E4F0A37440F0908EF07401F037
:101EF800908EEEE0FEA3E04E700302201D908EEE61
:101F0800E0A3E0F5828E83E0FEA3E0FF908EE8EE8A
:101F1800F0A3EFF0908EE6E0FEA3E0C3940BEE94FE
:101F2800004003021FB5908EE6E0A3E0640A4E70FD
:101F380006908EE6F0A3F0908EEAE0FEA3E0D3943C
:101F480063EE94004019908EE8E0FEA3E0FF7C0069
:101F58007D64120FBE908EE8ECF0A3EDF080269021
:101F68008EEAE0FEA3E0D39409EE94004017908E29
:101F7800E8E0FEA3E0FF7C007D0A120FBE908EE829
:101F8800ECF0A3EDF0908EE8E0FEA3E0FF7C007D8E
:101F98000A120FAC908EE8EEF0A3EFF0908EE6E018
:101FA800FEA3E0FFA3EE8FF01210498017908EE891
:101FB800E0FEA3E0FF7C007D0A120FBE908EE8EEE3
:101FC800F0A3EFF0908EE8E0FEA3E0FF908EEEE045
:101FD800FCA3E0F5828C83EEF0A3EFF0908EF0E0A6
:101FE800601A908EECE0FEA3E0FFA3E0FCA3E0F50E
:101FF800828C83E0FCA3E0FD12406A22908EECE024
:10200800FEA3E0FFA3E0FCA3E0F5828C83E0FCA341
:10201800E0FD123F7F22908EDB1212CF908EDB12F2
:1020280012AF121075FFAEF0908EDB1212AFE924DA
:1020380002F9E43AFA908F02E4F0A304F0123E8E1B
:10204800908EDB1212AF900008120F291213612034
:10205800640020D901218202000022AC908EDB129C
:1020680012AF9000021210A045F070030222AC904B
:102078008EDB1212AF121075FFAEF0908EDB1212CB
:10208800AF9000021210A0FDACF0908EDB1212AFE0
:102098009000091212D889828A831213B8908EDBB5
:1020A8001212AF900002E4F5F0121144908EDB1288
:1020B80012AF121075FFAEF0908EDB1212AFE9244A
:1020C80002F9E43AFA908F09E4F0A304F0123942D5
:1020D80022908EDB1212AF9000041210A0FFAEF017
:1020E800908EDB1212AF9000021210A06F7003E501
:1020F800F06E70030222AC908EDB1212AF121075D4
:10210800FFAEF0908EDB1212AF9000021210A0FD0D
:10211800ACF0908EDB1212AF9000091212D88982AF
:102128008A831213B8908EDB1212AF90000212103D
:10213800A0FF908EDB1212AF900004E5F08FF01232
:102148001144908EDEE4F0A304F0FB7A8E79DE90E1
:102158008F09E4F0A304F07F507E11123942E49015
:102168008EDEF0A3F07B017A8E79DE908F09F0A3E2
:1021780004F07F527E1112394222908EDB1212AF88
:102188009000021210A045F07003022280908EDBAE
:102198001212AF9000061210A0C3940AE5F0940042
:1021A8005051908EDB1212AF9000041210A0FFAEB7
:1021B800F0908EDB1212AF9000021210A06F700325
:1021C800E5F06E602E908EDB1212AF121075FFAE26
:1021D800F0908EDB1212AF9000021210A0FDACF04E
:1021E800908EDB1212AF9000091212D889828A836E
:1021F8001213B8908EDB1212AF9000061210A06472
:102208001445F07061908EDB1212AF121075FFAE9C
:10221800F0908EDB1212AF9000021210A0FDACF00D
:10222800908EDB1212AF90000C1212D889828A832A
:102238001213B8908EDB1212AF900002E4F5F01280
:102248001144908EDB1212AF121075FFAEF0908E13
:10225800DB1212AFE92402F9E43AFA908F09E4F0AC
:10226800A304F0123942908EDB1212AF900006E4FC
:1022780075F0011210D8800F908EDB1212AF90000B
:1022880006E4F5F0121144908EDB1212AF900002B2
:102298001210A0FF908EDB1212AF900004E5F08FB1
:1022A800F012114422908FDBEFF0A31212CFE478E2
:1022B8001DF608F690894CE012136122DC00231702
:1022C8000123B60223E40324180424390524EB0669
:1022D8000000250B908FDBE0B4031DFF90894DE0D3
:1022E800FE04F0744C2EF582E43488F583EFF09008
:1022F800894CE004F002251FE490894CF0A3F07E9D
:1023080001FFFD7B017A88794C1213BA02251F90D0
:102318008FDBE0121361232E03234F06237B102348
:102328007B830000239C908FDBE0FF90894DE0FECB
:1023380004F0744C2EF582E43488F583EFF090892C
:102348004CE004F002251F908FDBE0FF90894DE000
:10235800FE04F0744C2EF582E43488F583EFF09097
:10236800894F7404F0E490894EF090894C7403F01E
:1023780002251F908FDBE0FF90894DE0FE04F0748A
:102388004C2EF582E43488F583EFF090894C74067E
:10239800F002251FE490894CF0A3F07E01FFFD7B3D
:1023A800017A88794C1213BA02251F02251F908FD3
:1023B800DBE0FF90894DE0FE04F0744C2EF582E4DA
:1023C8003488F583EFF0908FDBE090894FF0E4904C
:1023D800894EF090894CE004F002251F908FDBE0D5
:1023E800FF90894DE0FE04F0744C2EF582E43488A9
:1023F800F583EFF090894EE004F0A3E0FF90894E5A
:10240800E06F600302251F90894CE004F002251F4D
:10241800908FDBE0FF90894DE0FE04F0744C2EF5C0
:1024280082E43488F583EFF090894CE004F00225CB
:102438001F908FDBE0FF90894DE0FE04F0744C2E76
:10244800F582E43488F583EFF090894DE0244BF56C
:1024580082E43488F583E0FE90894DE0244AF582D1
:10246800E43488F583E07C002400FFEC3E781DF618
:1024780008A6077B017A88794C90894DE024FEFDF7
:102488001255D5781DE6FC08E66F7002EE6C703DBB
:102498007B017A88794CC003C002C00190894DE065
:1024A80024FEFD908FDC1212AF89828A83D001D07E
:1024B80002D0031213B8E490894CF0A3F07E01FF18
:1024C800FD7B017A88794C1213BA7F0122E4908946
:1024D8004CF0A3F07E01FFFD7B017A88794C121342
:1024E800BA8034908FDBE0FF90894DE0FE04F074F1
:1024F8004C2EF582E43488F583EFF090894C74040F
:10250800F08014E490894CF0A3F07E01FFFD7B017C
:102518007A88794C1213BA7F0022908EE6EEF0A3E7
:10252800EFF07B017A90791F908EEA1212CF90908B
:1025380047E0FEA3E0FF908EE8EEF0A3EFF0908E68
:10254800E6E0FEA3E0640C4E60030225EC90902BBD
:10255800F0A3F0A3F0A3F07A90792B908EFBF0A370
:102568007402F07F067E007D007C0012469F9090EA
:102578002BE0FEA3E0FFE4FCFD9090371212979049
:10258800903712127F781012126C909037121297AF
:1025980090903712128B90902DE0FEA3E0FFE4FCA0
:1025A800FD12124C909037121297E47B107A0EF9B4
:1025B800F890903712127F1211BA90903BEEF0A368
:1025C800EFF07B017A90793B908F09E4F0A304F057
:1025D8007F627E20123942E4909047F0A3F07F0595
:1025E800FE123822908EE6E0FEA3E0640D4E7009DC
:1025F8007F05FE123822022707908EE6E0FEA3E050
:10260800C3940BEE940040030226B7908EE6E0A335
:10261800E0640A4E7006908EE6F0A3F0908EE8E033
:10262800FEA3E0FF7C037DE8120FBE908EE8ECF07D
:10263800A3EDF0908EE8E0FEA3E0FF7C007D0A1297
:102648000FAC908EE8EEF0A3EFF0908EE6E0FEA3DC
:10265800E0FFA3EE8FF0121049908EE8E0FEA3E0B1
:10266800D3940FEE9427400C908EE87427F0A3744F
:102678000FF08014908EE8E0FEA3E0C3EE940050C3
:1026880007E4908EE8F0A3F0908EE8E0FEA3E0FF68
:10269800909047EEF0A3EFF07B017A907947908F06
:1026A80009E4F0A304F07F607E2012394280509044
:1026B8008EE8E0FEA3E0FF7C007D0A120FBE908E3C
:1026C800E8EEF0A3EFF0908EE8E0FEA3E0C3EE940E
:1026D800005007E4908EE8F0A3F0908EE8E0FEA3A7
:1026E800E0FF909047EEF0A3EFF07B017A907947F6
:1026F800908F09E4F0A304F07F607E2012394290A5
:102708008EE8E0FEA3E0B4F227EEB403237F067E52
:1027180000123822E4909047F0A3F07B017A907978
:1027280047908F09F0A304F07F607E20123942227F
:10273800908EE8E0FEA3E0B45526EEB417227F01A0
:102748007E00123822E4909047F0A3F07B017A9043
:102758007947908F09F0A304F07F607E20123942F8
:1027680022908EDAEEF0A3EFF0A3ECF0A3EDF0A345
:102778001212CFE4908EE1F0908EE3F0A3F0A3F074
:10278800A3F0A3F07BFF7A5979F178E87C8E7D017C
:10279800FE7F80120EEA908EDAE0FEA3E02400FFAE
:1027A800EE3410908EE6F0A3EFF090881EE0FF90D4
:1027B8008EE1E0FE04F074E82EF582E4348EF583B1
:1027C800EFF0908EDCE0FEA3E064014E704D908E39
:1027D800E1E0FF04F074E82FF582E4348EF58374A9
:1027E80006F0908EE6E0FEA3E0EEFF908EE1E0FEBC
:1027F80004F074E82EF582E4348EF583EFF0908EC1
:10280800E6E0A3E0FF908EE1E0FE04F074E82EF528
:1028180082E4348EF583EFF00228A3908EE1E0FF86
:1028280004F074E82FF582E4348EF5837410F09088
:102838008EE6E0FEA3E0EEFF908EE1E0FE04F07489
:10284800E82EF582E4348EF583EFF0908EE6E0A36F
:10285800E0FF908EE1E0FE04F074E82EF582E434A7
:102868008EF583EFF0908EDCE0FEA3E0EEFF908E15
:10287800E1E0FE04F074E82EF582E4348EF583EF8F
:10288800F0908EDCE0A3E0FF908EE1E0FE04F074AF
:10289800E82EF582E4348EF583EFF0E4908EE2F0D2
:1028A800908EE2E0FF908EDCE0FCA3E0FDC3EF9D9C
:1028B800E49C505CA31212AF908EE2E075F002A483
:1028C800F58285F0831210A0E5F0FF908EE1E0FE1E
:1028D80004F074E82EF582E4348EF583EFF0908EE0
:1028E800DE1212AF908EE2E075F002A4F58285F058
:1028F800831210A0FF908EE1E0FE04F074E82EF53C
:1029080082E4348EF583EFF0908EE2E004F080905C
:102918007B017A8E79E8908EE1E0FD7C00124322FB
:10292800908EE4EEF0A3EFF0908EE4E0A3E0FF9049
:102938008EE1E0FE04F074E82EF582E4348EF5832F
:10294800EFF0908EE4E0FEA3E0EEFF908EE1E0FE73
:1029580004F074E82EF582E4348EF583EFF07B0101
:102968007A8E79E8908EE1E0FD7C00125440227E58
:10297800007F747D007B017A90791F1213BA12567A
:10298800F7909027E0FEA3E0C39401EE940040077F
:10299800E4909027F0A3F01236D712507D90902B38
:1029A800E0FEA3E0FFE4FCFD9090371212979090B0
:1029B8003712127F781012126C909037121297907B
:1029C800903712128B90902DE0FEA3E0FFE4FCFDFF
:1029D80012124C909037121297E47B107A0EF9F885
:1029E80090903712127F1211BA90903BEEF0A3EF3D
:1029F800F0E4908ED9F0A3F07B017A8E79D9908E8D
:102A0800FAF0A37402F07F0E7E007D007C0012476E
:102A180057908ED9E0FEA3E064A57003EE64A5602C
:102A280003022AE07B017A90792F908EFAF0A37442
:102A380004F07F0A7E007D007C0012475790902F9B
:102A4800E0FEA3E0C39401EE9400400E90902FE0C6
:102A5800A3E0D39463EE9400400990902FE4F0A390
:102A6800742DF0909031E0FEA3E0C39401EE940041
:102A7800400E909031E0A3E0D39463EE94004009B7
:102A8800909031E4F0A37432F0909033E0FEA3E02C
:102A9800C39401EE9400400E909033E0A3E0D394E9
:102AA80090EE9401400A9090337401F0A37490F072
:102AB800909035E0FEA3E0C39401EE9400400E90A0
:102AC8009035E0A3E0D39490EE9401406690903561
:102AD800E4F0A37496F0805B90902FE4F0A3742D3B
:102AE800F0A3E4F0A37432F0A37401F0A37490F09F
:102AF800A3E4F0A37496F074A5908EDBF0A3F07BAA
:102B0800017A8E79DB908EFBE4F0A37402F07F0EDD
:102B18007E007D007C0012469F7B017A90792F9081
:102B28008EFBE4F0A37404F07F0A7E007D007C0035
:102B380012469F7B017A90792F908F09E4F0A37455
:102B480004F07F507E20123942909075E4F0A3740F
:102B58000AF07FA07E0F1252607F077E0012382293
:102B680022908EE1EEF0A3EFF0A31212CF908EE642
:102B7800E0FEA3E04E70037F0122908EE1E0A3E027
:102B88005401FF908EE8E4F0A3EFF0908EE1E0FEB0
:102B9800A3E0FFEEC313FEEF13FF908EE1EEF0A368
:102BA800EFF0C2AFE4F5F1908EE1E0FEA3E0EEF5C0
:102BB800F2908EE1E0A3E0F5F375F40175F8AF301B
:102BC800FCFD908EE8E0FEA3E064014E7065908EF7
:102BD800E6E0FEA3E064014E700575F8A280037577
:102BE800F8A3D2FE20FEFD908EE6E0FEA3E064018D
:102BF8004E7017908EE375F0011212B8E5FC120FB3
:102C080078E4908EE6F0A3F08029908EE3E475F0E6
:102C1800011212B8E5FC120F78908EE3E475F0010A
:102C28001212B8E5FD120F78908EE674FF75F0FE6B
:102C3800121049908EE6E0FEA3E0D39400EE9400D3
:102C48005003022D48908EE6E0A3E08EF012138721
:102C58002C6800012C8800022CB7000300002CF619
:102C680075F8A8D2FE20FEFD908EE3E475F00112FF
:102C780012B8E5FA120F78E4908EE6F0A3F080B36C
:102C880075F8ACD2FE20FEFD908EE3E475F00112DB
:102C980012B8E5FA120F78908EE3E475F00112127B
:102CA800B8E5FB120F78E4908EE6F0A3F080847507
:102CB800F8AED2FE20FEFD908EE3E475F00112120C
:102CC800B8E5FA120F78908EE3E475F0011212B8A5
:102CD800E5FB120F78908EE3E475F0011212B8E567
:102CE800FC120F78E4908EE6F0A3F0022C3B75F806
:102CF800AFD2FE20FEFD908EE3E475F0011212B80B
:102D0800E5FA120F78908EE3E475F0011212B8E537
:102D1800FB120F78908EE3E475F0011212B8E5FC0F
:102D2800120F78908EE3E475F0011212B8E5FD12E7
:102D38000F78908EE674FF75F0FC121049022C3B58
:102D4800E4F5F8D2AFFF22908EDD1212CF908EE01C
:102D5800ECF0A3EDF0908EE0E0FEA3E07802C33340
:102D6800CE33CED8F9249DF582745A3EF583E49388
:102D7800FE740193FF908EDD1212AFEE8FF01211E8
:102D880025908EE0E0FEA3E07802C333CE33CED8A0
:102D9800F9249FF582745A3EF583E493740193FFF6
:102DA800908EDD1212AF900008EF120F8A908EDD20
:102DB8001212AF900008120F291213612DD1002EA4
:102DC80008012E620200002EC07BFF7A4C79CAC02F
:102DD80003C002C001908EDD1212AF9000091213D9
:102DE80008908EDD1212AF900002E4F5F012114443
:102DF800908EDD1212AF900004E4F5F01211442217
:102E0800908EDD1212AF121075FFAEF0908EDD12AB
:102E180012AFE92402F9E43AFA908F02E4F0A3042D
:102E2800F0123E8E908EDD1212AF9000021210A0AA
:102E3800FF908EDD1212AF900004E5F08FF01211B2
:102E4800447BFF7A5179A6C003C002C001908EDD91
:102E58001212AF900009121308227BFF7A5479F7F7
:102E6800C003C002C001908EDD1212AF900009129B
:102E780013087BFF7A557931C003C002C001908ED8
:102E8800DD1212AF90000C121308908EDD1212AFF3
:102E9800900002E4F5F0121144908EDD1212AF900A
:102EA8000004E4F5F0121144908EDD1212AF900088
:102EB80006E4F5F0121144227B007A007900C00381
:102EC800C002C001908EDD1212AF900009121308E3
:102ED8007B007A007900C003C002C001908EDD1229
:102EE80012AF90000C121308908EDD1212AF9000F2
:102EF80002E4F5F0121144908EDD1212AF90000436
:102F0800E4F5F0121144908EDD1212AF900006E441
:102F1800F5F012114422908EE1EEF0A3EFF0A31227
:102F280012CF908EE6E0FEA3E04E70037F01229060
:102F38008EE1E0A3E05401FF908EE8E4F0A3EFF007
:102F4800908EE1E0FEA3E0FFEEC313FEEF13FF90C7
:102F58008EE1EEF0A3EFF0C2AFE4F5F1908EE1E080
:102F6800FEA3E0EEF5F2908EE1E0A3E0F5F375F450
:102F78000175F88F30FCFD908EE8E0FEA3E0640157
:102F88004E7057908EE6E0FEA3E064014E701A750D
:102F9800F882908EE375F0011212B8120F10F5FC4A
:102FA800E4908EE6F0A3F0802C75F883908EE3E42D
:102FB80075F0011212B8120F10F5FC908EE3E4754B
:102FC800F0011212B8120F10F5FD908EE674FF751D
:102FD800F0FE121049D2FE20FEFD908EE6E0FEA320
:102FE800E0D39400EE940050030230E6908EE6E0C1
:102FF800A3E08EF0121387300F0001302B0002304F
:103008005600030000308F75F888908EE3E475F061
:10301800011212B8120F10F5FAE4908EE6F0A3F040
:103028000230D975F88C908EE3E475F0011212B86D
:10303800120F10F5FA908EE3E475F0011212B8122F
:103048000F10F5FBE4908EE6F0A3F00230D975F886
:103058008E908EE3E475F0011212B8120F10F5FA93
:10306800908EE3E475F0011212B8120F10F5FB9080
:103078008EE3E475F0011212B8120F10F5FCE4901B
:103088008EE6F0A3F0804A75F88F908EE3E475F031
:10309800011212B8120F10F5FA908EE3E475F001E0
:1030A8001212B8120F10F5FB908EE3E475F00112BE
:1030B80012B8120F10F5FC908EE3E475F0011212AD
:1030C800B8120F10F5FD908EE674FF75F0FC121023
:1030D80049D2FE20FE03022FE280F8022FE2E4F537
:1030E800F8D2AFFF22C0E0C083C082C0D075D01034
:1030F800AF9F750C008F0D5397FEE529D3940040C0
:10310800030232A7752A00E522121361312100312A
:103118007001322C02000032A4E521650D7002E531
:103128000C60030232A7908B6CE50DF075230175D6
:1031380022017526FF7527FFE526650CE527650D35
:1031480025E0FFE433FE74712FF58274573EF58352
:10315800E493F50E740193F50FE526FFE50EF526C9
:10316800EF650FF5270232A7AE230523746C2EF501
:1031780082E4348BF583E50DF0E523C39407502DE5
:10318800E526650CE527650D25E0FFE433FE74713F
:103198002FF58274573EF583E493F50E740193F589
:1031A8000FE526FFE50EF526EF650FF527E5236405
:1031B80007704E908B6DE064107046E526650CE54F
:1031C80027650D25E0FFE433FE74712FF5827457EF
:1031D8003EF583E493F50E740193F50FE526FFE5BC
:1031E8000EF526EF650FF527908B72E02409F5247C
:1031F800D394FC40067522000232A77522020232DF
:10320800A7E523C3940850030232A7908B73E0B557
:10321800260D908B72E0B527067528007529027572
:103228002200807BAE230523746C2EF582E4348B58
:10323800F583E50DF0E52414FFE523C39F502DE544
:1032480026650CE527650D25E0FFE433FE74712F34
:10325800F58274573EF583E493F50E740193F50FE8
:10326800E526FFE50EF526EF650FF527E523C3955F
:1032780024402C746B2524F582E4348BF583E0B567
:103288002615746A2524F582E4348BF583E0B52786
:10329800067528007529027522008003752200D062
:1032A800D0D082D083D0E03242914B000042914D81
:1032B80000004290B3000060228FFD0000425034AD
:1032C80030000000000000000000000000000000C6
:1032D80000000101900001000103E7000160209057
:1032E8009300010002000300040006000700080024
:1032F8000F00100011001300000000000000000083
:1033080000C100011F006100884C0000000000009F
:1033180000000000000000000000000000000000A5
:103328000000000000000000000000000000000095
:103338000000000000000000000000000000000085
:103348000000000000000000000000000000000075
:103358000000000000000000000000000000000065
:103368000000000000000000000000000000000055
:103378000000000000000000000000000000000045
:103388000000000000000000000000000000000035
:103398000000000000000000000000000000000025
:1033A8000000000000000000000000000000000015
:1033B8000000000000000000000000000000000005
:1033C80000000000000000000000000000000000F5
:1033D80000000000000000000000000000000000E5
:1033E80000000000000000000000000000000000D5
:1033F80000000000000000000000000000000000C5
:103408000000000000000000000041894C004189D4
:103418004D0041894E0041894F00022B000000E415
:10342800908EE0F0908B6DE012136134400334B15C
:10343800063507100000357D908B70E0FEA3E04E46
:10344800600F908B70E0FEA3E0D39473EE9400407D
:10345800037F0022908C98E521F0A37403F0908BF1
:1034680070E0A3E025E0908C9AF0E02405F5259023
:103478008B6EE0FEA3E025E0FFEE33908EDEF0A336
:10348800EFF0908B6EE0FEA3E0FF7B017A8C799BD6
:10349800908C9AE0FD908EE6E4F0A3EDF0122B6993
:1034A800908EE07401F0023580908B6EE0FEA3E010
:1034B800FF7B017A8B7970908EE6E4F0A37402F0BA
:1034C800122F1E752508E4908EDDF0908EDDE0C386
:1034D80094065023E0246CF582E4348BF583E0FFF6
:1034E800908EDDE02498F582E4348CF583EFF0903B
:1034F8008EDDE004F080D4908EE07401F080799045
:103508008B70E0FEA3E04E600F908B70E0FEA3E0AE
:10351800D3947DEE940040037F0022908B6EE0FEF2
:10352800A3E0FF7B017A8B7973908B72E0FD908E1C
:10353800E6E4F0A3EDF0122F1E752508E4908EDD69
:10354800F0908EDDE0C394065023E0246CF582E40D
:10355800348BF583E0FF908EDDE02498F582E43427
:103568008CF583EFF0908EDDE004F080D4908EE04F
:103578007401F080037F0022908EE0E0FF2290909B
:1035880043E0FEA3E064054E600E909043E0A3E0A4
:10359800640A4E60030236BD90914BE475F0011247
:1035A800104990914BE0FEA3E0C39404EE940050C0
:1035B800030236BDE490914BF0A3F0909043E0FEF7
:1035C800A3E08EF012138735DB0005363C000A00B5
:1035D8000036BD90903712127FE47B01FAF9F81299
:1035E800117190903712129790904F74FFF5F01266
:1035F800104990907DE475F00112104990907DE09B
:10360800FCA3E0FD90907BE0FEA3E0FF120FAC7CF2
:10361800007D64120FBE909077EEF0A3EFF07A90E1
:103628007977908F09E4F0A304F07F027E251239A0
:10363800420236BD90907FE475F0011210499090D7
:103648007FE0FCA3E0FD90907BE0FEA3E0FF120F7B
:10365800AC7C007D64120FBE909077EEF0A3EFF083
:103668007B017A907977908F09E4F0A304F07F04C6
:103678007E251239427B017A90797F908F09E4F098
:10368800A37402F07F5A7E20123942909083E0FEA4
:10369800A3E0C3EE9400400A90908374FFF5F01203
:1036A8001049909083E0FEA3E064014E7007FDFC92
:1036B8007F0612533A909085E0FEA3E0D39400EE83
:1036C8009400400A90908574FFF5F01210492290FA
:1036D800901FE0FEA3E0D39400EE94004009909080
:1036E8001FE4F0A37404F07B017A90791F908F098E
:1036F800E4F0A304F07F007E2112394290901FE08D
:10370800FEA3E064044E70177BFF7A5A797C908F91
:1037180009F0A3740BF07F007E30123942802990A3
:103728009027E0FEA3E0FF7C007D22120FAC74FF1F
:103738002FF9748F3EFA7B01908F09E4F0A374147B
:10374800F07F007E301239427BFF7A5A7971908F70
:1037580009E4F0A3740BF07F007E31123942909097
:1037680023E0FEA3E0D39464EE94004009909023F4
:10377800E4F0A37464F0909023E0FEA3E0C3940AFD
:10378800EE94005009909023E4F0A3740AF090900E
:1037980023E0FEA3E0FF124A0F7B017A9079239081
:1037A8008F09E4F0A304F07F007E12123942909052
:1037B80025E0FEA3E0D39401EE9400400890902504
:1037C800E4F0A304F0909025E0FEA3E0FFC37401A9
:1037D8009FFFE49EFE124F9E7B017A907925908F81
:1037E80009E4F0A304F0FF7E12123942909021E020
:1037F800FEA3E0C39403EE94004009909021E4F006
:10380800A37403F07B017A907921908F09E4F0A3E7
:1038180004F07FFF7E0F12394222908EEDEEF0A366
:10382800EFF0908EEDE0FEA3E025E0FFEE33FE74AE
:10383800932FF58274903EF583E0FEA3E0FF908E0F
:10384800EFEEF0A3EFF0908EEDE0FEA3E08EF01225
:10385800138739360004386A0007388200080000E8
:1038680039367B017A907929908F09E4F0A304F026
:103878007F0A7E20123942023936909067E0FCA315
:10388800E0FD7F027E00123F7F90906BE0FCA3E09A
:10389800FD7F047E00123F7F90906FE0FCA3E0FD67
:1038A8007F087E00123F7F909069E0FCA3E0FD7FD7
:1038B800027E0012406A90906DE0FCA3E0FD7F0458
:1038C8007E0012406A909071E0FCA3E0FD7F087EC4
:1038D8000012406A90905BE0FCA3E0FD7F107E0040
:1038E800123F7F90905FE0FCA3E0FD7F207E0012F6
:1038F8003F7F909063E0FCA3E0FD7F407E00123F95
:103908007F90905DE0FCA3E0FD7F107E0012406A8E
:10391800909061E0FCA3E0FD7F207E0012406A9059
:103928009065E0FCA3E0FD7F407E0012406A908E27
:10393800EFE0FEA3E0FF12556B22908F04EEF0A398
:10394800EFF0A31212CF908F04E0A3E05401908F00
:103958000BF0908F04E0FEA3E0FFEEC313FEEF131D
:10396800FF908F04EEF0A3EFF0E4F5F1908F04E000
:10397800FEA3E0EEF5F2908F04E0A3E0F5F375F412
:103988000175F88F30FCFD908F0BE0603C908F093B
:10399800E0FEA3E0D39400EE9400402D75F88390E8
:1039A8008F06E475F0011212B8120F10F5FC908F13
:1039B80006E475F0011212B8120F10F5FDD2FE9050
:1039C8008F0974FFF5F012104975F88F908F09E090
:1039D800FEA3E0C39402EE9400404B908F06E4757A
:1039E800F0011212B8120F10F5FA908F06E475F074
:1039F800011212B8120F10F5FB908F06E475F00152
:103A08001212B8120F10F5FC908F06E475F001122F
:103A180012B8120F10F5FDD2FE908F0974FF75F0E1
:103A2800FE12104980A6908F09E0FEA3E04E6023A5
:103A380075F88C908F06E475F0011212B8120F1009
:103A4800F5FA908F06E475F0011212B8120F10F50E
:103A5800FBD2FEE4F5F822908ED91212CF7E007FB9
:103A68001E7D007B017A91796B1213BA908ED91260
:103A780012AF9088221212CF908ED91212AFE92479
:103A880002F9E43AFA9088251212CF908ED91212D0
:103A9800AFE92404F9E43AFA9088281212CF908EFC
:103AA800D91212AFE92406F9E43AFA90882B1212D7
:103AB800CF908ED91212AFE92408F9E43AFA908827
:103AC8002E1212CF908ED91212AFE9240AF9E43AD5
:103AD800FA9088311212CF908ED91212AFE9240CC5
:103AE800F9E43AFA9088341212CF908ED91212AFB4
:103AF800E9240EF9E43AFA9088371212CF908ED959
:103B08001212AFE92410F9E43AFA90883A1212CF67
:103B1800908ED91212AFE92412F9E43AFA90883D4E
:103B28001212CF908ED91212AFE92416F9E43AFA9C
:103B38009088401212CF908ED91212AFE92418F94A
:103B4800E43AFA9088431212CF908ED91212AFE954
:103B5800241AF9E43AFA9088461212CF908ED912B4
:103B680012AFE9241CF9E43AFA9088491212CF22DC
:103B7800908EDAEEF0A3EFF0A3ECF0A3EDF0E4788A
:103B880018F608F608F6A3F0A3F07BFF7A597971C6
:103B980078E07C8E7D01FE7F80120EEA908EDAE05E
:103BA800FEA3E02400FFEE3410908EDEF0A3EFF0C9
:103BB800908EDEE0FEA3E0FF908820EEF0A3EFF009
:103BC80090881F7403F090881EE0FF7818E606249A
:103BD800E0F582E4348EF583EFF0E60624E0F58222
:103BE800E4348EF5837403F0908EDEE0FEA3E0EEFD
:103BF800FFE60624E0F582E4348EF583EFF0908E3C
:103C0800DEE0A3E0FFE60624E0F582E4348EF583E7
:103C1800EFF0908EDCE0FEA3E0EEFFE60624E0F590
:103C280082E4348EF583EFF0908EDCE0A3E0FFE6CB
:103C38000624E0F582E4348EF583EFF07B017A8E7A
:103C480079E0E6FD7C001243227819A60608A6074B
:103C580018E608E6FF7818E60624E0F582E4348ED4
:103C6800F583EFF008E6FE08E6EEFF7818E606248E
:103C7800E0F582E4348EF583EFF07B017A8E79E00B
:103C8800E6FD7C0012544022908EDA1212CF7E009C
:103C98007F807D007B017A8979561213BA908EDA7B
:103CA8001212AF120F10908950F0908EDA1212AFE4
:103CB800900001120F29908951F0908820E0FEA30E
:103CC800E0FF908952EEF0A3EFF0908951E0640391
:103CD8007074908EDA1212AF900002120F29FFC38F
:103CE80013FF908954E4F0A3EFF0E47818F67818FD
:103CF800E6FF908954E0FCA3E0FDC3EF9DE49C50EF
:103D08006C908EDA1212AFE675F002900003121270
:103D1800A3120F29FE908EDA1212AF7818E675F00A
:103D2800029000041212A3120F297C002400FFEC59
:103D38003EFE7818E675F0029089561212A3EEF04E
:103D4800A3EFF00680A8908EDA1212AF900004124A
:103D58000F29FE908EDA1212AF900005120F297CFF
:103D6800002400FFEC3E908954F0A3EFF07B017A29
:103D7800897950C002C0017A8A796C908EE012125B
:103D8800CFD001D0021244077B017A897950229062
:103D98008ED9EFF0E02404F582E43488F583E0124C
:103DA80013613E83003DCF013DCF023E0B033E0B26
:103DB800043E29053E29063E47073DED093DED0A2B
:103DC8003E650D00003E8D908ED9E075F002A4246A
:103DD8000CF9748835F0FA7B017D017C007F027E46
:103DE8000012276922908ED9E075F002A4240CF9FC
:103DF800748835F0FA7B017D017C007F087E001213
:103E0800276922908ED9E075F002A4240CF97488F1
:103E180035F0FA7B017D017C007F037E0012276963
:103E280022908ED9E075F002A4240CF9748835F03C
:103E3800FA7B017D017C007F047E001227692290B5
:103E48008ED9E075F002A4240CF9748835F0FA7B59
:103E5800017D017C007F057E0012276922908ED9A2
:103E6800E075F002A4240CF9748835F0FA7B017D22
:103E7800017C007F0D7E00122769227D0E7C00E404
:103E8800FFFE123B7822908EFDEEF0A3EFF0A31216
:103E980012CF908EFDE0A3E05401908F04F0908E35
:103EA800FDE0FEA3E0FFEEC313FEEF13FF908EFDCF
:103EB800EEF0A3EFF0E4F5F1908EFDE0FEA3E0EE66
:103EC800F5F2908EFDE0A3E0F5F375F40175F8AF17
:103ED80030FCFD908F02E0FEA3E0D39400EE940046
:103EE8005003023F7BD2FE20FEFD908F04E0703D20
:103EF800908F02E0FEA3E0D39400EE9400402E9051
:103F08008EFFE475F0011212B8E5FA120F78908E60
:103F1800FFE475F0011212B8E5FB120F78908F04D8
:103F28007401F0908F0274FFF5F0121049908F041D
:103F3800E0B4019F908F02E0FEA3E0D39400EE94DA
:103F4800004090908EFFE475F0011212B8E5FC1263
:103F58000F78908EFFE475F0011212B8E5FD120F8C
:103F680078E4908F04F0908F0274FFF5F0121049F6
:103F7800023EDBE4F5F822908EF1EEF0A3EFF0A319
:103F8800ECF0A3EDF07B017A8E79F3A31212CF90B7
:103F98008EF1E0A3E030E015908EF51212AF908F0D
:103FA80009E4F0A304F07F037E20123942908EF1D9
:103FB800E0A3E030E415908EF51212AF908F09E47B
:103FC800F0A304F07420FFFE123942908EF1E0A3B2
:103FD800E030E515908EF51212AF908F09E4F0A34A
:103FE80004F07F227E20123942908EF1E0A3E03067
:103FF800E615908EF51212AF908F09E4F0A304F045
:104008007F247E20123942908EF1E0A3E030E11542
:10401800908EF51212AF908F09E4F0A304F07F4060
:104028007E20123942908EF1E0A3E030E215908EA6
:10403800F51212AF908F09E4F0A304F07F427E20BE
:10404800123942908EF1E0A3E030E315908EF5121C
:1040580012AF908F09E4F0A304F07F447E20123958
:104068004222908EF1EEF0A3EFF0A3ECF0A3EDF076
:104078007B017A8E79F3A31212CF908EF1E0A3E040
:1040880030E015908EF51212AF908F09E4F0A3047A
:10409800F07F047E20123942908EF1E0A3E030E4F4
:1040A80015908EF51212AF908F09E4F0A304F07FFB
:1040B800217E20123942908EF1E0A3E030E5159080
:1040C8008EF51212AF908F09E4F0A304F07F237EDF
:1040D80020123942908EF1E0A3E030E615908EF57B
:1040E8001212AF908F09E4F0A304F07F257E20120E
:1040F8003942908EF1E0A3E030E115908EF512126E
:10410800AF908F09E4F0A304F07F417E201239427A
:10411800908EF1E0A3E030E215908EF51212AF9088
:104128008F09E4F0A304F07F437E20123942908E79
:10413800F1E0A3E030E315908EF51212AF908F09ED
:10414800E4F0A304F07F457E2012394222908EEBE2
:10415800EEF0A3EFF07BFF7A5A798778ED7C8E7DBD
:10416800017E007F04120EEA7BFF7A5A798B78F180
:104178007C8E7D017E007F12120EEA908EEBE0FEAF
:10418800A3E08EF012138741AB000141B200024157
:10419800BA000341C2000441CA000541D20006002A
:1041A80000423CE4908F03F08026908F037401F066
:1041B800801E908F037402F08016908F037403F0B2
:1041C800800E908F037404F08006908F037405F0BE
:1041D800909021E0FEA3E0C39404EE94005029904F
:1041E8009021E0A3E024EDF582748E3EF583E0FF94
:1041F800908F03E075F003A424F1F582E4348EF582
:10420800831212AFEF120F567B017A907987908F45
:1042180009E4F0A37406F07F057E251239427B017C
:104228007A907987908F09E4F0A37406F07F0B7E6B
:104238002512394222908EE6EEF0A3EFF0E4A3F0C7
:10424800A3F0908EE6E0FEA3E08EF0121387428280
:104258000001428B000342A0000642B0000742D48E
:10426800000942C5000A42CD000B42EF000C42F79C
:10427800000D4310000E0000432190903DE4F0A390
:1042880004F02290903DE0FEA3E04E70030243212B
:10429800E490903DF0A3F02290903DE0FEA3E04E24
:1042A8007077FFFE1238222290903DE0FEA3E04E88
:1042B80070671256067F047E00123822227F077E1E
:1042C8000012382222E4FFFE1238222290901FE0CA
:1042D800FEA3E064044E70077F03FE123822227F9B
:1042E800027E00123822227F057E00123822229098
:1042F800903DE0FEA3E04E70207F0AFE1238229027
:10430800903FE4F0A304F02290903FE0FEA3E04E3B
:104318006007E490903FF0A3F022908FE51212CF4F
:10432800908FE8ECF0A3EDF074FFA3F0A3F0A37472
:1043380080F0A37405F0E4A3F0908FE874FFF5F023
:1043480012105F45F070030243EF908FE5E475F0BB
:10435800011212B8120F10908FEEF07B017A8F794C
:10436800EE908FF41212CF124B38908FEAE0FCA334
:10437800E0FD908FEEE0FEEC6EFEEDFF908FEAEE32
:10438800F0A3EFF0E4908FEFF0A3F0908FEFE0FE52
:10439800A3E0C39408EE64809480509D908FEAE077
:1043A800FEA3E0EE30E721908FEAA3E025E0FFEEE0
:1043B80033FEA3E0FCA3E0FDEE6CFEEF6DFF908FF3
:1043C800EAEEF0A3EFF08013908FEAE0FEA3E02579
:1043D800E0FFEE33908FEAF0A3EFF0908FEFE475F3
:1043E800F00112104980A47B017A8F79EA908FF44A
:1043F8001212CF12496B908FEAE0FEA3E0FF2290E1
:104408008EDD1212CFE47819F608F608F608F69051
:104418008EDD1212AFE92406F9E43AFA908EE3121F
:1044280012CF7B007A007900908EE01212CF908E26
:10443800DD1212AF9000021210A02400FFE5F03444
:10444800F07819F608A607908EDD1212AF900001D9
:10445800120F29121361446E0344E90644E910441B
:10446800E983000044E9E4781BF608F6908EDD1233
:1044780012AF9000041210A0FF781BE6FC08E6C3F8
:104488009FEC95F0505B908EDD1212AFE92406F98F
:10449800E43AFA18E6FE08E625E0FFEE33FEE92FD7
:1044A800F9EA3EFA121075FFAEF018E6FC08E6FDD0
:1044B8007819E6FA08E62DFDEA3CFC90882275F0AA
:1044C80003ED1212A3EC75F003A42583F5831212F1
:1044D800AFEE8FF0121125781C06E61870010680E1
:1044E8008B22908EE6EEF0A3EFF0908EE6E0FEA32E
:1044F800E08EF0121387450E0005450E000645169E
:104508000008000045C57F047E0012382222E4908E
:104518009049F0A3F090901FE0FEA3E0FFC374045D
:104528009FFFE49E90901FF0A3EFF090901FE0FE95
:10453800A3E0D39400EE9400400990901FE4F0A308
:104548007404F07B017A90791F908F09E4F0A3043A
:10455800F07F007E211239427B017A90791F908E7C
:10456800FBE4F0A37402F07F007E007D007C001263
:10457800469F90901FE0FEA3E064044E70167BFFF8
:104588007A5A797C908F09F0A3740BF07F007E3003
:1045980012394222909027E0FEA3E0FF7C007D22A2
:1045A800120FAC74FF2FF9748F3EFA7B01908F09BC
:1045B800E4F0A37414F07F007E3012394222908E0A
:1045C800E6EEF0A3EFF0908EE6E0FEA3E08EF012A8
:1045D80013874601000145E600020000461A909044
:1045E80029E0FEA3E0C39414EE940050259090298E
:1045F800E475F0011210498019909029E0FEA3E0BB
:10460800D39401EE9400400A90902974FFF5F012BB
:1046180010497B017A907929908F09E4F0A304F07E
:104628007F4E7E201239427B017A907967908EED19
:10463800E4F0A37406F0E4FFFE121416909067E00D
:10464800FCA3E0FD7F027E00123F7F90906BE0FCB0
:10465800A3E0FD7F047E00123F7F90906FE0FCA3F3
:10466800E0FD7F087E00123F7F909069E0FCA3E0A8
:10467800FD7F027E0012406A90906DE0FCA3E0FD91
:104688007F047E0012406A909071E0FCA3E0FD7FF9
:10469800087E0012406A22908EF4121297908EF8CB
:1046A8001212CF908EF81212AF908EFBE0FEA3E0AC
:1046B800FF908F09EEF0A3EFF07F007EFF123942E2
:1046C80090919E74A5F0908EF412127F78101212B9
:1046D80059EFE490919FEFF0908EF412127F7808D2
:1046E800121259EFE49091A0EFF0908EF412127F1D
:1046F800EFE49091A1EFF0A374FFF0E4A3F0908EA3
:10470800FBE0FEA3E0EE9091A4F0908EFBA3E09076
:1047180091A5F07B017A91799E908F09E4F0A374BA
:1047280004F07F087E001239427B017A91799E90CD
:104738008F02E4F0A37402F07F087E00123E8E9090
:10474800919EE060097F017E0012526080DB22901A
:104758008EF3121297908EF71212CF90919E745A80
:10476800F0908EF312127F7810121259EFE49091A4
:104778009FEFF0908EF312127F7808121259EFE42F
:104788009091A0EFF0908EF312127FEFE49091A138
:10479800EFF0A374FFF0E4A3F0908EFAE0FEA3E03C
:1047A800EE9091A4F0908EFAA3E09091A5F07B0191
:1047B8007A91799E908F09E4F0A37404F07F087EC3
:1047C800001239427B017A91799E908F02E4F0A31E
:1047D8007402F07F087E00123E8E90919EE0600980
:1047E8007F017E0012526080DB908EF71212AF902C
:1047F8008EFAE0FEA3E0FF908F02EEF0A3EFF07FC9
:10480800007EFF123E8E22759401759502758E000A
:1048180075930075C87075C96075F800787FE4F6FF
:10482800D8FD9080007F007E80E4F0A3DFFCDEFAF4
:1048380075812C0248790256B5E493A3F8E493A352
:104848004003F68001F208DFF48029E493A3F854CA
:1048580007240CC8C333C4540F4420C8834004F44D
:1048680056800146F6DFE4800B0102040810204060
:10487800809032B0E47E019360BCA3FF543F30E5E2
:1048880009541FFEE493A360010ECF54C025E060D5
:10489800A840B8E493A3FAE493A3F8E493A3C8C5A3
:1048A80082C8CAC583CAF0A3C8C582C8CAC583CA94
:1048B800DFE9DEE780BEE529640260037F0022129B
:1048C8003427908EDCEFF0E07006F529F522FF2200
:1048D80074FFF526F527E4908ED9F0E52524FEFF30
:1048E800908ED9E0C39F504AE02498F582E4348C36
:1048F800F583E0FFE526EF652725E0FFE433FE7446
:10490800712FF58274573EF583E493FE740193FF8B
:10491800908EDAEEF0A3EFF0E526FF908EDAE0FC59
:10492800A3E0FDECF526EF6DF527908ED9E004F0B5
:1049380080A974962525F582E4348CF583E527F063
:1049480074972525F582E4348CF583E526F0E4F5A3
:1049580022752301752903908C98E0F59E908EDCD2
:10496800E0FF22908FF11212CFE4908FF9F0A3F0BC
:10497800908FF7F0A3F0908FF7E0FEA3E0C39410B8
:10498800EE64809480506B908FF41212AF12107501
:10499800FDACF0908FF7E0A3E0FF7E007401A8075C
:1049A800088005C333CE33CED8F9FFEE5CFEEF5D49
:1049B8004E6033908FF9E0FCA3E0FD908FF7E0A301
:1049C800E0FFC3740F9FFF7E007401A807088005ED
:1049D800C333CE33CED8F9FFEC4EFEED4FFF908FA8
:1049E800F9EEF0A3EFF0908FF7E475F0011210499B
:1049F8008084908FF9E0FEA3E0FF908FF11212AF50
:104A0800EE8FF012112522908EE8EEF0A3EFF090D1
:104A18008EE8E0FEA3E0D39464EE94004009908E03
:104A2800E8E4F0A37464F07B017A8E79EA908F024F
:104A3800E4F0A37402F07F807E00123E8E908EEA2E
:104A4800745AF0A3E4F0A3E0FEA3E054FBFF908EB9
:104A5800ECEEF0A3EFF07B017A8E79EA908F09E40F
:104A6800F0A37402F07F807E00123942908EE8E055
:104A7800A3E0FEE42432FFE43EA3F0A3EFF0A3E4B6
:104A8800F0A37464F07B017A8E79EA908F09E4F0E0
:104A9800A37402F07F827E0012394222C0E0C0F087
:104AA800C083C082C0D075D000C000C001C002C0A1
:104AB80003C004C005C006C007C2C612500E908DC0
:104AC80092E0600214F0908D93E0600214F0782B6D
:104AD800E6FE08E64E6006E6161870011612575AEA
:104AE800E529B4010C0528E528D39401400375296C
:104AF80002E522D394005006E52994024014052AC1
:104B0800E52AD39414400E752A00752200752900F1
:104B18008003752A00D007D006D005D004D003D072
:104B280002D001D000D0D0D082D083D0F0D0E032F3
:104B3800908FF11212CFE4908FF9F0908FF7F0A3D5
:104B4800F0908FF7E0FEA3E0C39408EE64809480B1
:104B58005058908FF41212AF120F10FD7C00908FF6
:104B6800F7E0A3E0FF7E007401A807088005C333BF
:104B7800CE33CED8F9FFEE5CFEEF5D4E6020908F0D
:104B8800F9E0FF908FF7E0A3E0FEC374079EFEF8FC
:104B98007401088002C333D8FC4F908FF9F0908FCE
:104BA800F7E475F0011210498097908FF9E0FF90B3
:104BB8008FF11212AFEF120F782290917DE0FEA3D1
:104BC800E024A2FFEE34FEFE7C007D051210139057
:104BD800904BEEF0A3EFF090904BE0FEA3E0D3945F
:104BE80000EE648094805007E490904BF0A3F0901E
:104BF8009057E0FEA3E0FF90904BE0FCA3E0D39F2A
:104C0800EC9E4010909057E0A3E090904DEEF0A3FA
:104C1800EFF0800E90904BE0FEA3E0FFA3EEF0A330
:104C2800EFF07B017A90794D908F09E4F0A304F0BE
:104C38007F007E2012394212537D124DC51252ADAB
:104C480022E4F508F508E508C394045074E50875EE
:104C5800F007A4244FF582E43491F583E0FEA3E045
:104C6800FFE50875F007A42451F582E43491F58333
:104C7800E0FCA3E0C39FEC9E4043E50875F007A461
:104C8800244FF582E43491F583E0FEA3E0D3940049
:104C9800EE94004028E50875F007A42453F582E453
:104CA8003491F5831212AF1213B4E50875F007A416
:104CB8002451F582E43491F583E4F0A3F0050880EB
:104CC8008522908EE2EEF0A3EFF0A3ECF0A3EDF0D6
:104CD800908EE2E0FEA3E08EF01213874D001100E3
:104CE8004D2411144D0C11164D1812024D3013009D
:104CF8004D3C130200004D47908EE4E0FEA3E0FF18
:104D080012423D22908EE4E0FEA3E0FF121D4E22E7
:104D1800908EE4E0FEA3E0FF12252222908EE4E0CC
:104D2800FEA3E0FF1245C622908EE4E0FEA3E0FF5A
:104D38001244EA22908EE4E0FEA3E0FF1208052266
:104D4800E4908ED9F0A3F0908ED9E0FEA3E0C3944E
:104D58000AEE9400502F908ED9E0A3E0FF7C007DEE
:104D68000F120FAC74B52FF974903EFA7B01908E38
:104D7800D9E0FCA3E0FD122D4F908ED9E475F00127
:104D880012104980C2908EDBE4F0A304F0FB7A8E07
:104D980079DB908F09E4F0A304F07F507E1112397B
:104DA80042E4908EDBF0A3F07B017A8E79DB908F62
:104DB80009F0A304F07F527E1112394222E4908E4A
:104DC800D9F0908802E01213614DFE024DE1044EC5
:104DD80039104E3F2000004E3F124E42EFB40108FA
:104DE8009088027402F0804F908D93E0704990880B
:104DF800027410F08041908800E0FFA3E06F6037F4
:104E0800E07F00FEEF2400F974803EFA7B01123C3B
:104E180090908ED9E9F0908801E004F05407F0E40E
:104E2800908820F0A3F090881FF090880204F0800A
:104E3800069088027420F07F0022E4908FDAF07BDD
:104E4800017A8E79DAC003C002C0011B7A00791892
:104E5800908FDE1212CFD001D002D003124F2DEF67
:104E680064017042781AF608F67818E6FE08E6FF3C
:104E780008E6FC08E6C39FEC9E503018E6FE08E6FC
:104E880024DAF582748E3EF583E008F6E6FF7BFFB0
:104E98007A5379C01222AD908FDAEFF0781B06E6CC
:104EA8001870010680C3E4908FDAF0908FDAE0FF83
:104EB80022908FFBE0FEA3E0D39400EE9400400A1A
:104EC800908FFB74FFF5F0121049908FFBE4F0A36C
:104ED8007432F0909051E0FCA3E0FD7F017E001257
:104EE8005634909053E0FCA3E0FD7F017E00123F12
:104EF8007F909055E0FCA3E0FD7F017E0012406AA0
:104F080090904FE0FCA3E0FD7F017E001256617B8C
:104F1800017A907973908F09E4F0A304F07F587EAA
:104F28002012394222908FDB1212CF908D97E064C5
:104F380001705A908D92E0704E781EF6908D98E030
:104F4800FF781EE6C39F5021E624D9F582E4348D0C
:104F5800F583E0FF908FDB1212AFE6F582758300D0
:104F6800EF120F8A781E0680D3908D98E0FF908FFD
:104F7800DE1212AFE48FF0121125E4908D97F0A3A2
:104F8800F0781D7601800A781D76028004E4781D89
:104F9800F6781DE6FF22908EE8EEF0A3EFF07B0195
:104FA8007A8E79EA908F02E4F0A37402F07F807E13
:104FB80000123E8E908EEA745AF0A3E4F0908EE8C8
:104FC800E0FEA3E064014E7014908EECE0FEA3E0D6
:104FD8004408FF908EECEEF0A3EFF08012908EEC78
:104FE800E0FEA3E054F7FF908EECEEF0A3EFF07B29
:104FF800017A8E79EA908F09E4F0A37402F07F8039
:105008007E0012394222E4F509F509E509C3940442
:105018005062E50975F007A4244FF582E43491F550
:1050280083E0FEA3E0FFE50975F007A42451F582AB
:10503800E43491F583E0FCA3E0C39FEC9E5031E596
:105048000975F007A4244FF582E43491F583E0FE56
:10505800A3E0D39400EE94004016E50975F007A488
:105068002451F582E43491F583E475F00112104976
:105078000509809722909029E0FEA3E0D39414EECE
:1050880094004008909029E4F0A304F07B017A9002
:105098007967908EEDE4F0A37406F0E4FFFE121435
:1050A800167B017A90796778577C907D017E007F26
:1050B80004120EEA7B017A907967785B7C907D0117
:1050C8007E007F0C120EEA7B017A907929908F0975
:1050D800E4F0A304F07F0A7E201239422290914F17
:1050E800E4F0A304F0A3E4F0A304F07BFF7A4B7987
:1050F800C2A31212CF909156E4F0A37432F0A3E445
:10510800F0A37408F07A007926A31212CF90915D6B
:10511800E4F0A3740AF0A3E4F0A37450F07A1879C9
:10512800CDA31212CF909164E4F0A374FAF0A374A3
:1051380001F0A3742CF07A357986A31212CF22904D
:105148008EEBEEF0A3EFF0A31212CF909029E0FEC1
:10515800A3E0C4F8540FC868FFEEC454F048FE90AA
:105168008EEBE0FCA3E02FFFEE3C908EF2F0A3EF75
:10517800F0908EF2E0FEA3E0FFE4FCFDC006C0075D
:10518800908EED1212AF908EF0E0FEA3E0FF908EAD
:10519800FBEEF0A3EFF0D007D00612469F22908EC8
:1051A800E2EEF0A3EFF0A3ECF0A3EDF0908EE2E0D6
:1051B800FEA3E08EF012138751EC0FFF51D41112A9
:1051C80051E0120051F8120100005203908EE4E001
:1051D800FEA3E0FF12010022908EE4E0FEA3E0FFB0
:1051E80012547E22908EE4E0FEA3E0FF1255A22224
:1051F800908EE4E0FEA3E0FF1252F422C0E0C083E8
:10520800C082C0D075D010309911C299908D94E4A5
:10521800F0908D98F0908D9374C8F0309831AF99D4
:10522800750A008F0BC298908D98E024D9F582E416
:10523800348DF583EFF0908D977401F0A3E004F0BE
:10524800E0B40005E4B40101F0908D927403F0D04D
:10525800D0D082D083D0E032908EFDEEF0A3EFF074
:10526800E4A3F0A3F0908EFDE0FEA3E0FFA3E0FC32
:10527800A3E0C39FEC9E502CE4A3F0A3F0908F0111
:10528800E0FEA3E0C394B8EE940B500C908F01E4B9
:1052980075F00112104980E5908EFFE475F0011257
:1052A800104980C12290916BE0FEA3E04E700990F6
:1052B8009081F0A304F08007E4909081F0A3F07B44
:1052C800017A907981908F09E4F0A304F07F307E11
:1052D800251239427B017A90793D908F09E4F0A339
:1052E80004F0FF7E25123942124EB922908EE6EE66
:1052F800F0A3EFF0908EE6E0FEA3E0FF909025EE9D
:10530800F0A3EFF0909025E0FEA3E0FFC374019FA7
:10531800FFE49EFE124F9E7B017A907925908EFBCA
:10532800E4F0A37402F07F037E007D007C00124647
:105338009F22908ED9EFF0A3ECF0A3EDF0908ED9D8
:10534800E0FF90881CE02404F582E43488F583EFBC
:10535800F0908EDAE0FEA3E0FF90881CE075F00282
:1053680090880C1212A3EEF0A3EFF090881CE004D2
:10537800F05407F02230003FC200E4908ED9F0A329
:10538800F0908ED9E0FEA3E0C3940AEE9400502773
:10539800908ED9E0A3E0FF7C007D0F120FAC74B5AE
:1053A8002FF974903EFA7B0112201E908ED9E47575
:1053B800F00112104980CA22908FDB1212CF908F11
:1053C800DEEDF0E0FF7E00C006C007908FDB121212
:1053D800AFC001908800E07F00FEEF2400F97480E0
:1053E8003EA801FC7D01D001D007D006120EEA903C
:1053F8008800E004F05407F022C0E0C083C082C0F7
:10540800D075D0105396FEE529B40323752A00E51C
:1054180023C3952540087529007522008011AF2304
:10542800052374982FF582E4348CF583E0F59ED03B
:10543800D0D082D083D0E032908F681212CF908F74
:105448006BECF0A3EDF0E4781BF6781BE6FF908F89
:105458006BE0FCA3E0FDC3EF9DE49C5018908F68BF
:105468001212AFE6F582758300120F29FF12572832
:10547800781B0680D522908EE6EEF0A3EFF0908E92
:10548800E6E0FEA3E0FF909023EEF0A3EFF090900B
:1054980023E0FEA3E0FF124A0F7B017A9079239064
:1054A8008EFBE4F0A37402F0FF7E007D007C001206
:1054B800469F227E007F0C7D007B017A90798712BF
:1054C80013BA7B017A907987908F09E4F0A3740668
:1054D800F07F057E251239427B017A907987908F7B
:1054E80009E4F0A37406F07F0B7E2512394222905E
:1054F8008EE2EEF0A3EFF0A3ECF0A3EDF07B017ADF
:1055080090791FA31212CFE4908EE4F0A3F0A312B7
:1055180012AF90001E1210A0640145F0600A908E30
:10552800E2E0FEA3E0FF800022908EE2EEF0A3EF1F
:10553800F0A3ECF0A3EDF07B017A90791FA312128F
:10554800CFE4908EE4F0A3F0A31212AF90001E12E5
:1055580010A0640145F0600A908EE2E0FEA3E0FF2F
:10556800800022908EF1EEF0A3EFF0A3745AF0A31E
:105578007401F0908EF1E0FEA3E0FF908EF5EEF05E
:10558800A3EFF07B017A8E79F3908F09E4F0A3748E
:1055980002F07F847E0012394222908EE6EEF0A35C
:1055A800EFF0908EE6E0FEA3E0FF909021EEF0A3EE
:1055B800EFF07B017A907921908EFBE4F0A37402DE
:1055C800F07F017E007D007C0012469F22908FDFD5
:1055D8001212CF908FE2EDF0E4A3F0A3F0908FDFEA
:1055E8001212AF908FE2E0FD7C00124322908FE30D
:1055F800EEF0A3EFF0908FE3E0FEA3E0FF22E47B60
:10560800107A0EF9F890903712127F1211BA909012
:105618003BEEF0A3EFF07B017A90793B908F09E4A1
:10562800F0A304F07F627E2012394222908ED9EED8
:10563800F0A3EFF0A3ECF0A3EDF0908ED9E0A3E097
:1056480030E0157B017A8E79DB908F09E4F0A304B2
:10565800F07F027E2012394222908ED9EEF0A3EF1D
:10566800F0A3ECF0A3EDF0908ED9E0A3E030E014C5
:105678007B017A8E79DB908F09E4F0A304F0FF7E3A
:10568800201239422243C94043B71075985075D843
:105698008053877F75BA0375AAE443A8107E017FFB
:1056A800477D007B017A8D79921213BA2212574DE9
:1056B8007B017A91796B123A5F1256DB12297712C5
:1056C8004D48125766D2AF1250E5124C491248BEE7
:1056D80080F8227E087F227D007B017A8079001283
:1056E80013BA90881E7403F09088027401F0227B2C
:1056F800017A90791F908EFAE4F0A37408F07F0085
:105708007E007D007C001247572275C870E4F5CDF5
:10571800F5CC75CBBC75CACD43A820D2C8D2AF2270
:10572800908F6DEFF0908D94E070FA04F0908F6D8B
:10573800E0F59922759680759780E4F5D975E7E0CC
:10574800D2BAD2BB2212002E12568D12573C1257D3
:105758001222781F06E6B41E04E4F6D20022752150
:1057680001E4F529F522F52A220000C0C1C1810112
:1057780040C30103C00280C241C60106C00780C7FA
:10578800410500C5C1C4810440CC010CC00D80CDC9
:10579800410F00CFC1CE810E400A00CAC1CB810B98
:1057A80040C90109C00880C841D80118C01980D96A
:1057B800411B00DBC1DA811A401E00DEC1DF811FF8
:1057C80040DD011DC01C80DC411400D4C1D5811509
:1057D80040D70117C01680D641D20112C01380D31A
:1057E800411100D1C1D0811040F00130C03180F1A9
:1057F800413300F3C1F28132403600F6C1F78137F8
:1058080040F50135C03480F4413C00FCC1FD813DC8
:1058180040FF013FC03E80FE41FA013AC03B80FB99
:10582800413900F9C1F88138402800E8C1E98129E7
:1058380040EB012BC02A80EA41EE012EC02F80EFF9
:10584800412D00EDC1EC812C40E40124C02580E508
:10585800412700E7C1E68126402200E2C1E3812317
:1058680040E10121C02080E041A00160C06180A129
:10587800416300A3C1A28162406600A6C1A78167F7
:1058880040A50165C06480A4416C00ACC1AD816DC8
:1058980040AF016FC06E80AE41AA016AC06B80AB99
:1058A800416900A9C1A88168407800B8C1B9817967
:1058B80040BB017BC07A80BA41BE017EC07F80BFF9
:1058C800417D00BDC1BC817C40B40174C07580B508
:1058D800417700B7C1B68176407200B2C1B3817317
:1058E80040B10171C07080B041500090C1918151A8
:1058F80040930153C052809241960156C0578097F9
:1059080041550095C1948154409C015CC05D809DC7
:10591800415F009FC19E815E405A009AC19B815B96
:1059280040990159C058809841880148C0498089E8
:10593800414B008BC18A814A404E008EC18F814FF6
:10594800408D014DC04C808C41440084C185814507
:1059580040870147C046808641820142C043808318
:1059680041410081C18081404000000000000000EA
:10597800000000000000000000000000000000001F
:10598800000000000000000000000000000000000F
:1059980000000000000000000000000000000000FF
:1059A80000000000000000000000000000000000EF
:1059B80000000000000000000000000000000000DF
:1059C80000000000000000000000000000000000CF
:1059D80000000000000000000000000000000000BF
:1059E80000000000000000000000000000000000AF
:1059F800000000000000000000000000000000009F
:105A0800000000000000000000000000000000008E
:105A1800000000000000000000000000000000007E
:105A2800000000000000000000000000000000006E
:105A3800000000000000000000000000000000005E
:105A4800000000000000000000000000000000004E
:105A5800000000000000000000000000000000003E
:105A680000000000000000000056352E3032000013
:105A7800000000002D2D2D2D2D2D2D2D00000000B6
:105A880001020301908701908901908B01908D019B
:105A9800908F019091110000001116000012020071
:105AA800001114000013000000130200001112007E
:0D5AB80001120000010FFF000112010001AA
:00000001FF
